:020000040000FA
:080000000002040000000000F2
:020000040000FA
:040008006E04000082
:020000040000FA
:04000C006E0400007E
:020000040000FA
:040010006E0400007A
:020000040000FA
:040014006E04000076
:020000040000FA
:040018006E04000072
:020000040000FA
:04001C006E0400006E
:020000040000FA
:040020006E0400006A
:020000040000FA
:040024006E04000066
:020000040000FA
:040028006E04000062
:020000040000FA
:04002C006E0400005E
:020000040000FA
:040030006E0400005A
:020000040000FA
:040034006E04000056
:020000040000FA
:040038006E04000052
:020000040000FA
:04003C006E0400004E
:020000040000FA
:040040006E0400004A
:020000040000FA
:040044006E04000046
:020000040000FA
:040048006E04000042
:020000040000FA
:04004C006E0400003E
:020000040000FA
:040050006E0400003A
:020000040000FA
:040054002C04000078
:020000040000FA
:040058004E04000052
:020000040000FA
:04005C006E0400002E
:020000040000FA
:040060006E0400002A
:020000040000FA
:040064006E04000026
:020000040000FA
:040068006E04000022
:020000040000FA
:04006C006E0400001E
:020000040000FA
:040070006E0400001A
:020000040000FA
:040074006E04000016
:020000040000FA
:040078006E04000012
:020000040000FA
:04007C006E0400000E
:020000040000FA
:040080006E0400000A
:020000040000FA
:040084006E04000006
:020000040000FA
:040088006E04000002
:020000040000FA
:04008C006E040000FE
:020000040000FA
:040090006E040000FA
:020000040000FA
:040094006E040000F6
:020000040000FA
:040098006E040000F2
:020000040000FA
:04009C006E040000EE
:020000040000FA
:0400A0006E040000EA
:020000040000FA
:0400A4006E040000E6
:020000040000FA
:0400A8006E040000E2
:020000040000FA
:0400AC006E040000DE
:020000040000FA
:0400B0006E040000DA
:020000040000FA
:0400B4006E040000D6
:020000040000FA
:0400B8006E040000D2
:020000040000FA
:0400BC006E040000CE
:020000040000FA
:0400C0006E040000CA
:020000040000FA
:0400C4006E040000C6
:020000040000FA
:0400C8006E040000C2
:020000040000FA
:0400CC006E040000BE
:020000040000FA
:0400D0006E040000BA
:020000040000FA
:0400D4006E040000B6
:020000040000FA
:0400D8006E040000B2
:020000040000FA
:0400DC006E040000AE
:020000040000FA
:0400E0006E040000AA
:020000040000FA
:0400E4006E040000A6
:020000040000FA
:0400E8006E040000A2
:020000040000FA
:0400EC006E0400009E
:020000040000FA
:0400F0006E0400009A
:020000040000FA
:0400F4006E04000096
:020000040000FA
:0400F8006E04000092
:020000040000FA
:0400FC006E0400008E
:020000040000FA
:040100006E04000089
:020000040000FA
:040104006E04000085
:020000040000FA
:040108006E04000081
:020000040000FA
:04010C006E0400007D
:020000040000FA
:040110006E04000079
:020000040000FA
:040114006E04000075
:020000040000FA
:040118006E04000071
:020000040000FA
:04011C006E0400006D
:020000040000FA
:040120006E04000069
:020000040000FA
:040124006E04000065
:020000040000FA
:040128006E04000061
:020000040000FA
:04012C006E0400005D
:020000040000FA
:040130006E04000059
:020000040000FA
:040134006E04000055
:020000040000FA
:040138006E04000051
:020000040000FA
:04013C006E0400004D
:020000040000FA
:040140006E04000049
:020000040000FA
:040144006E04000045
:020000040000FA
:040148006E04000041
:020000040000FA
:040208006E04000080
:020000040000FA
:04020C006E0400007C
:020000040000FA
:040210006E04000078
:020000040000FA
:040214006E04000074
:020000040000FA
:040218006E04000070
:020000040000FA
:04021C006E0400006C
:020000040000FA
:040220006E04000068
:020000040000FA
:040224006E04000064
:020000040000FA
:040228006E04000060
:020000040000FA
:04022C006E0400005C
:020000040000FA
:040230006E04000058
:020000040000FA
:040234006E04000054
:020000040000FA
:040238006E04000050
:020000040000FA
:04023C006E0400004C
:020000040000FA
:040240006E04000048
:020000040000FA
:040244006E04000044
:020000040000FA
:040248006E04000040
:020000040000FA
:04024C006E0400003C
:020000040000FA
:040250006E04000038
:020000040000FA
:040254002C04000076
:020000040000FA
:040258004E04000050
:020000040000FA
:04025C006E0400002C
:020000040000FA
:040260006E04000028
:020000040000FA
:040264006E04000024
:020000040000FA
:040268006E04000020
:020000040000FA
:04026C006E0400001C
:020000040000FA
:040270006E04000018
:020000040000FA
:040274006E04000014
:020000040000FA
:040278006E04000010
:020000040000FA
:04027C006E0400000C
:020000040000FA
:040280006E04000008
:020000040000FA
:040284006E04000004
:020000040000FA
:040288006E04000000
:020000040000FA
:04028C006E040000FC
:020000040000FA
:040290006E040000F8
:020000040000FA
:040294006E040000F4
:020000040000FA
:040298006E040000F0
:020000040000FA
:04029C006E040000EC
:020000040000FA
:0402A0006E040000E8
:020000040000FA
:0402A4006E040000E4
:020000040000FA
:0402A8006E040000E0
:020000040000FA
:0402AC006E040000DC
:020000040000FA
:0402B0006E040000D8
:020000040000FA
:0402B4006E040000D4
:020000040000FA
:0402B8006E040000D0
:020000040000FA
:0402BC006E040000CC
:020000040000FA
:0402C0006E040000C8
:020000040000FA
:0402C4006E040000C4
:020000040000FA
:0402C8006E040000C0
:020000040000FA
:0402CC006E040000BC
:020000040000FA
:0402D0006E040000B8
:020000040000FA
:0402D4006E040000B4
:020000040000FA
:0402D8006E040000B0
:020000040000FA
:0402DC006E040000AC
:020000040000FA
:0402E0006E040000A8
:020000040000FA
:0402E4006E040000A4
:020000040000FA
:0402E8006E040000A0
:020000040000FA
:0402EC006E0400009C
:020000040000FA
:0402F0006E04000098
:020000040000FA
:0402F4006E04000094
:020000040000FA
:0402F8006E04000090
:020000040000FA
:0402FC006E0400008C
:020000040000FA
:040300006E04000087
:020000040000FA
:040304006E04000083
:020000040000FA
:040308006E0400007F
:020000040000FA
:04030C006E0400007B
:020000040000FA
:040310006E04000077
:020000040000FA
:040314006E04000073
:020000040000FA
:040318006E0400006F
:020000040000FA
:04031C006E0400006B
:020000040000FA
:040320006E04000067
:020000040000FA
:040324006E04000063
:020000040000FA
:040328006E0400005F
:020000040000FA
:04032C006E0400005B
:020000040000FA
:040330006E04000057
:020000040000FA
:040334006E04000053
:020000040000FA
:040338006E0400004F
:020000040000FA
:04033C006E0400004B
:020000040000FA
:040340006E04000047
:020000040000FA
:040344006E04000043
:020000040000FA
:040348006E0400003F
:020000040000FA
:100400006FF92100AE7E22000E018800000000007E
:10041000000020000000E000020032000001200087
:1004200020028800140007002E0107000000E000F1
:1004300003003A00E09C2700010020000200370082
:100440000000200001002000810F70000100320038
:1004500014000700000020000000E000020032004D
:100460000000020000000000BA800200000000004E
:100470000040DA000000FE004440A900C03C20001B
:100480000000E0000300320000002000A00188000E
:100490004440A800000006008A1F78008B1F7800E7
:1004A0000000060091018800800478000000EB0045
:1004B0001A003700E284440032A0B4009905BA0063
:1004C000E284440032A0B4009906BA00E2844400F9
:1004D00032A0B4000006EB00476FDE00FD07B2005B
:1004E000636CE10003003A00EBFF07000000EB0043
:1004F0000A003700606CE10004003A00005DEB0088
:100500008B05E900FDFF3E00040037006168E10053
:10051000010032000086EB000B00070019C7BA008B
:100520001905BA000E04E00003003A000A00E000DA
:10053000E0FF3A0000000600FE07B2009E018800BE
:100540008A047800F5FF3700395DBA008B05E900B1
:100550000C003200295DBA008B05E900080032006A
:100560000C00E00003003A00E284440032A0B40032
:10057000F5FF370019DDBA008B05E900FAFF3A00F4
:100580008904E800E184440032A0B40000000600C1
:10059000000000000000000000000000000000005B
:1005A000000000000000000000000000000000004B
:1005B000000000000000000000000000000000003B
:1005C000000000000000000000000000000000002B
:100850000000000000000000809FBE00821F7800A2
:100860003211800080FA800061FA80008270780086
:1008700080FA80000000E80080FA880071FA8000A9
:10088000810F500001003A009560A9008560A90021
:100890004F0178004F00BE0000400600809FBE0060
:1008A000A0FA80000000E800A0FA8800B1FA8000F9
:1008B000810F500002003A009580A9000400370023
:1008C00091FA8000614078000080FB0020118800D0
:1008D0008580A9004F00BE00004006000040DA00FD
:1008E0000000FE000000050014002000B9043700DD
:1008F000F4FF2F00B70437000003BE009400070088
:100900006011B8000470A70007F0A10007F8A30069
:1009100017003A006509B1000D0032000D003500E6
:10092000860220000628E1000300350003002800AD
:100930006000B8000200050000004000818048000F
:1009400002014900838149008502E900FAFF3A006B
:1009500000000600F88F4200050034008100D1003D
:100960000080D3008502E800FCFF3A00000006008A
:100970006011B8008000EB00000005000001BE001F
:10098000730007000470A70003F0A10003F8A300A0
:1009900013003A006509B10010003200090035006B
:1009A0006928E10002003500010028000000050070
:1009B00000004000818048008502E900FCFF3A0009
:1009C00000000600F88F4200050035008100D100CC
:1009D0000080D3008502E800FCFF3A00000006001A
:1009E0008000EB00000005004F89DE0082017800E6
:1009F00093043700889FBE008A9FBE00008270006B
:100A00000402710004827100260032000004BE005E
:100A10000200BE006011B8006B09200095022000A2
:100A20000182CF000A0039000541B1000082CF00E9
:100A3000070039000541B1000982CF0004003900E8
:100A40000541B1000882CF00010039000541B10025
:100A500005425200120032000A003B008281710000
:100A6000610164008100D1000080D3008984D3003B
:100A70000884D3008B05E8000442E800F7FF3A0041
:100A8000070037000804440089844C000000480037
:100A9000818048008B05E9000442E900F9FF3A0033
:100AA000050007004F05BE004F04BE000000060011
:100AB0006011B800CFFF3700810020006180550031
:100AC0000B003D000B00200061FE2F000100E10043
:100AD0001D00340082817100610164008904D1002D
:100AE0000884D3000000E800FAFF3A0071002000FB
:100AF0006100640003007000020060000900320021
:100B000061044400E0844C000988A500050032001F
:100B10008B05E8006808E10002003A008904D10072
:100B20000884D300F20F20000258E10005003D00C8
:100B3000C75DDD00F907B200898075000800780004
:100B4000000006000BF827008B007800000005006D
:100B5000C70ADE00F107B200F50FB200080032004C
:100B6000E1CF4200020032000170A0002400050025
:100B7000810F7000010032000408050044000500E8
:100B8000810F700002003A00140005008502E900A0
:100B90000000400081C04800FCFF3B000170A00045
:100BA000240005006022B800060220000000D000EA
:100BB0008180D2000482D2008582D2000000A00091
:100BC0000202520083825A000300310002024200F6
:100BD00083824A000000A1000603E900F3FF3A0007
:100BE00000000600EFFF07000400BE000000060042
:100BF00007F82700078361000638E10004003A0087
:100C0000F7072000878361008703710001003A0025
:100C100003F0A200889FBE008A9FBE008C9FBE008A
:100C2000470ADE000480A100C71ADE000580A1008B
:100C3000070028000785600087856100F70F200006
:100C40000720E1009E0032000728E1009C003200EE
:100C5000010678000400E000B4003200F70720002D
:100C6000878060000170A0000500E000C000320035
:100C7000F7072000878161000370A000050652007D
:100C80000F003A000B50E1000B0032000308E100B6
:100C900002003A000200E1007E003200020450002F
:100CA00083845800040031000001FD008101FD0033
:100CB0008402FD008A05FD006044B8002100370071
:100CC0000520E10005003D000001FD008101FD005F
:100CD0008402FD008A05FD00050652007A60E100ED
:100CE000050035000170A1004722DD0084807000FE
:100CF0008A807000630037006044B800EF0266002D
:100D000007FF2F00070666000500E000060034001C
:100D1000F08312008714DD000511DE00071BDD00E3
:100D2000060171008519DE007060E10005003500E4
:100D30000904780082047800030178008001EB0048
:100D4000700656000B50E10003003A00020040001C
:100D5000838048000400370060041400E0841C0015
:100D600002005800838058000188A300060032006A
:100D70008100D1000080D3008984D3000884D3008F
:100D80000402E800270037000178A30025003A009C
:100D90000100E000030032008186CF006986560022
:100DA0000A0037008C0020000000E00004003A0038
:100DB00009007800880478000004EB0070025200FB
:100DC0008086CF000D0646000C06E9007060E10049
:100DD000060035008000780009007800880478005B
:100DE0000004EB0070065600700252000C00E00098
:100DF0000C0034008C08DD00F00316000703DE0051
:100E0000868070000C00DD00074BDE0006007000DD
:100E10008C4CDD000743DE00868474000C44DD004A
:100E20000C0252006120E1002000350061016000E9
:100E30000700280087816400F7FF2700878364008C
:100E4000070374000300E000060032008203730011
:100E5000040032000000E800E08048000188A300A0
:100E60000E003A00F70F20000720E1004A003D0085
:100E70000170A1004722DD00810072008A807000AD
:100E80000000BE004F06BE004F05BE004F04BE006E
:100E9000000006006000B800FAFF37008100D100B2
:100EA0000080D3000402E800EEFF37000401780060
:100EB00089017400A10107008A807000F1FF3700EA
:100EC000F7010700070278000001FD008101FD0025
:100ED000F301070087027800850372000778A300FA
:100EE000040032000001FD008101FD000602070040
:100EF000E4FF3700850362000768A30008003200A2
:100F00000B50E10003003200F0FF2F00F1FF27003B
:100F1000DCFF37000001FD008101FD00D9FF370033
:100F20000468A300D7FF3200FAFF3700F8FF27005C
:100F3000888360000B003A000000E00009003A00DE
:100F40008303640082837300020032000200BE004B
:100F5000CCFF37000B50E100CEFF3A000200BE008C
:100F6000C8FF370014002000810064003EFF3700F6
:100F7000F8FF27008883610004003A000200E000C7
:100F800002003A008C007800BEFF370015002000F8
:100F90008301640039FF370001F8270000002000BA
:100FA00081007500B7FF3700889FBE008A9FBE0092
:100FB0008C9FBE001B0020000202BE000586680058
:100FC00006002800060666004709DE00F20FB200A0
:100FD000820032000243E80080003200C729DE00B0
:100FE000F30FB2007D0032000343E8007B003200C3
:100FF000F107B2000170A000F507B2000570A00073
:10100000C708DD004903DE00868070004700DD0070
:10101000C72ADD004923DE00868272004722DD00F8
:10102000030551000403500085835800030031007C
:1010300000004000818048000A05E9008C1F78000C
:101040008A9FBE00040050008580580004024200C0
:1010500085824A0000004000818048000005EB00C6
:101060000004BE006033B8000406BE000D48E10075
:1010700056003100110009004DCCD8000C01B80019
:101080000D02B8008481410060824A0082835300CF
:1010900003045C0084845C0060055D000A00E000DD
:1010A00025003A00800578000D40E100490031003C
:1010B0008800780007007800110009004D88D800EA
:1010C0000C01B8000D02B8008481410060824A0022
:1010D0006003110083835B0004045C00E0845C0017
:1010E0000900E00021003A004F01BE000300E000CB
:1010F0002B003200E3016000070673008C81710051
:1011000001003200640070004200DE004E5EDD002F
:101110000C007000C258DE0001E0A000830107004F
:10112000CF017800818071004F06BE004F05BE00E0
:101130004F04BE00000006008C8343000D044C00E9
:10114000E0844C0060054D000000E9000A00E0006A
:10115000D4FF32008C8343000D044C00E0844C002B
:1011600060054D000000E900CEFF37000C0343008E
:101170008D834B0060044C00E0844C000000E900CB
:101180000900E000D8FF32000C0343008D834B00C0
:1011900060044C00E0844C000000E900D2FF3700FE
:1011A0004200DE004E5EDD000C007000C258DE0022
:1011B00001E0A000CF0178000300E000DAFF320078
:1011C00060001000E0801800D7FF3700F0FF2F000C
:1011D000AAFF3700F0FF2F00B9FF37000404BE005C
:1011E0002F010700870678000004FD008104FD0040
:1011F0002B010700078366000678A3000300320076
:101200000960A7000800BE002C0037000D78A3007D
:10121000020032000800BE00280037000778A30053
:1012200026003A0001F0A10009F0A1000668A30021
:1012300003003200F1FF2700F0FF2F00BAFF370054
:101240000D68A300030032000800BE008C8070000F
:10125000B5FF37000768A30007003A000648A3005F
:1012600003003200F1FF2700F0FF2F00AEFF370030
:101270000D48A300030032006000B8008C807000AD
:10128000A9FF37000748A3000400320001F8270037
:10129000000020008C807000A3FF3700760107005B
:1012A0000004FD008104FD000205780072010700C2
:1012B0000802BE008A01780059FF37000160A000D3
:1012C000120220000240880097FF37000100E00072
:1012D000120032000500E00010003200889FBE00BE
:1012E0008A9FBE008C9FBE000006EB0001F8A300A1
:1012F0000300320060001000E08018000CF0A00035
:1013000005F8A3000300320060021200E0821A0018
:101310000CF0A2008005EB0041FF37006000B80030
:10132000020005000383680007002800070363002C
:10133000470ADE000480A100C71ADE000580A10074
:10134000F70F20000720E100420032000728E100EB
:1013500040003200889FBE008A9FBE008C1F78002C
:10136000F107B200F307B2000400E00064003200AD
:101370000170A0000500E000680032000370A000CA
:1013800085054200EB07B1000204B8000302B80073
:101390008484440060854A00020AB80084844400C2
:1013A0000A854A00030AB80004054500040033001A
:1013B0000804D0008984D2000A85D2008B05E90098
:1013C0006158E1003D003500021020000901610074
:1013D0000308200089816100F707200087836400EB
:1013E00008867300C84CDE00C853DD008784740093
:1013F0004855DE000300E00006003200820376005C
:10140000040032008904E80060054D000A88A3004A
:101410000C003A00F70F20000758E10044003D009F
:101420000A70A100C75DDD000A8575008A0073009F
:10143000090078004F0678004F05BE004F04BE003B
:10144000000006000A05D1008984D3008B05E8005E
:10145000F0FF3700881F780006047800900007002E
:10146000070278000001FD008101FD008C000700EB
:1014700087027800850372000778A3000500320018
:101480000001FD008101FD009F0007004F0478006E
:1014900000000600850372000748A3000300320025
:1014A000F0FF2F00F1FF2700F8FF370000002000B9
:1014B00001F8270088807000F4FF37008801780069
:1014C0004848DD00808171004848DE00C850DD00DA
:1014D00001007000C850DE00060478000B0178009F
:1014E0001600070088807000D2FF37000500E0007A
:1014F00005003200170020003A0007009DFF37006A
:1015000081037000F9FF3A00860078004F067800EA
:101510004F05BE004F04BE000000050083037100AC
:10152000F9FF3200270020002E00070094FF37004B
:1015300001F8270086807000F4FF37000100E0000A
:1015400026003200610111007810E10023003C0008
:101550006022B8007010E1000400350080027800BD
:10156000010078008000EB00700151000200E000F3
:101570000900340070031100062ADD00822ADE0013
:101580008603DD00878272000200DE00860BDD002C
:10159000070070008208DE0084817100F4FF2700DC
:1015A0000482620084817100040028008482620049
:1015B0006102600005F0A6000000060004827100D0
:1015C000070032000000E800E0804800000006004C
:1015D0000002BE006000B800EFFF37006000B800F6
:1015E00000000600889FBE000004EB006138E100A7
:1015F00016003A000100E00008003A00C800DE00D2
:101600004800DD00880020000100E00003003A00EF
:10161000C800DE004800DD00680444008184CF007B
:10162000E9845400060034008908DD00F0831400CA
:101630008703DE00878070000900DD000904440094
:10164000610214004F04BE00000006000300E00029
:1016500008003A00C811DE004811DD0088002000B3
:101660000300E00003003A00C811DE004811DD006D
:10167000680444008384CF00E984540006003400E9
:101680008919DD00F08314008713DE008781710063
:101690000911DD0009044400E1021400E9FF3700EC
:1016A0002700200001F0A70017002000470BDE00F4
:1016B000F60FB200040032000643E8000A003200D0
:1016C0004702B3000000060001037800F607B200ED
:1016D0000603700002003A000703B3000000060092
:1016E0008702B3000000060001037800F607B2008D
:1016F00006037000020032000770A0000000060020
:101700000760A000000006000478A3000400320077
:101710000578A300030032000168A30001003A002D
:101720000200BE000160A000000006008101700000
:10173000270032008002EB0001F8A3000300320012
:1017400060001000E080180015002000F407200061
:101750000202420020003400F703200087036000EB
:10176000060420000003630002082000000161005D
:101770004700DE00C909DD0000807100C708DE00F7
:101780000600E00008003200870371000600320006
:101790001000B0000180B0000188A30002003200F8
:1017A000C108DE000402E800F107B200F30F2000D8
:1017B0000320E10003003D004722DD0081007200AC
:1017C0002900370001F827000000EB002600370051
:1017D0006000B80000000600680212007F20E100EF
:1017E000020034006000B8001F0037006011B8002C
:1017F0007020E100040035008001780001007800CD
:101800008000EB00700252000400E0000900340088
:10181000F00312000719DD008419DE000703DD0064
:10182000868171000400DE00070BDD0006007000F9
:101830008408DE00F7FF27008383630087037100BD
:101840000600280003036300070032000700E000E1
:1018500003003A006101600002817300020032005F
:101860001000B0000180B0000500A60000000600D6
:1018700001F0A000000006004F0ADE004709DE006C
:10188000F107B200F20FB2000B003200F207B10014
:101890000170A000C708DD00C901DE008380700070
:1018A0004700DD000400A6000000060060001000F4
:1018B000E080180000000600810F700001003A006F
:1018C000000006008182CF000500E00010003E000D
:1018D0008082CF00EE8242007028E10004003900CF
:1018E00007003E00800078000000EB000E0037008B
:1018F000708312008600DE000500DD000A0037005C
:10190000708352008600DD000000EB000600370007
:10191000E28252008508DD00708312000603DE00BB
:10192000868070000500DD007507B0000501EA0043
:101930000400A6000000060060001000E08018000F
:1019400000000600889FBE008A9FBE00300442004F
:10195000B0844A0030054B0090854B006000B10018
:101960000898BE000A90BE000440E10005C8E100EE
:1019700006D0E10007D8E100020031006800400015
:101980001008E8004F05BE004F04BE00000006002E
:10199000889FBE008A9FBE003004BE002005BE00A6
:1019A0000418540005985C0006185D0007985D0057
:1019B000110020000440E10005C8E10006D0E1006C
:1019C00007D8E100010039008000EB00108810000A
:1019D0004F05BE004F04BE00000006001200FA00D2
:1019E000889FBE008A9FBE008C9FBE00E0B79F000C
:1019F000F1B79F0082BF9F0093BF9F000605BE0006
:101A00000404BE000000EB00D0B79F00C0B79F00E9
:101A1000B0B79F00A0B79F0090B79F000006780066
:101A20005FB19700CFB09700820141003FB09700AF
:101A30000200E00004003D00370007007E805700F0
:101A4000C0FF070003003700330007007E80570007
:101A5000CFFF0700DFB697000D00E0000C00350057
:101A60006FB29700FFB297000FBB97009FBB970024
:101A700010002000010020006011B8000002720078
:101A80008182720002037300838373001B000700CE
:101A90000C06E80001042000810F5600E0FF3A0028
:101AA0000D00E00004003D000802BE000A03BE0075
:101AB0007E805700A3FF07005FA897000000E000AA
:101AC00005003A001FB29700AFB297003FB39700EE
:101AD000CFB39700090007006FB09700FFB09700E1
:101AE0000FB997009FB997004F06BE004F05BE0083
:101AF0004F04BE000080FA0000000600010007004D
:101B000000000600A4B79F00B5B79F00C6B79F00AE
:101B1000D7B79F00000006004F09DE0082817100E8
:101B2000B3B79F004F01DE008180400082807000CB
:101B3000A1B79F008FB097004F09DE000000400062
:101B40000200700090B79F007FA897004F01DE0051
:101B5000818040008280700081B79F000D000700E7
:101B60004F3ADE000000400004007000F0AF9F001C
:101B7000080007000402420085824A0006034B0069
:101B800087834B00DFFF07000802BE000A03BE0088
:101B9000000006002FB29700BFB297004FB3970026
:101BA000DFB3970000000600881F780018002000AF
:101BB000881F780089FF07008F87E9004F047800AD
:101BC00000000600801FEB0084FF07008F87E900FC
:101BD00000000600889FBE008A9FBE00841F780018
:101BE000270007004F00780011003300F0FF2F009E
:101BF000838F6C0006003B00040565000A00A70007
:101C00000800370009F0A600100020000800370087
:101C1000820F5400838F5C00030039001000200005
:101C200001003E000000200009F0A7000000EA00CB
:101C30004F05BE004F04BE000000E000000006009B
:101C4000881F7800030478000300E00007003D00CF
:101C500060001000E080180060011900E0811900A8
:101C600002003B0001F02D000300370061FB07007C
:101C700008F0A70001F0A0004F0478000000060063
:101C80000004BE00B2FB07000003BE000405BE0056
:101C90000200BE00AEFB0700844F75000000060086
:101CA0008001780002003700B15978000201E90094
:101CB0000200E000FCFF3A0000000600889FBE0022
:101CC0008A9FBE00800478000200E0005B003200C2
:101CD00001407800814C780082814400F1F99F0036
:101CE000E20F51005500360091449800A14498003D
:101CF000E1F99F00D1F99F00E60F51004F00360037
:101D0000B1449800C1F99F00E80F51004B00360024
:101D10000905EA00630565000A8444000A055100CC
:101D2000C1FF2F00010565000080FB008000EB0073
:101D3000121020001310200044000700008CBE0089
:101D40000A01440060B99F0071B99F00E80F550077
:101D50003A003600200498003104980040049800AE
:101D60005104980020B99F0031B99F0040B99F00ED
:101D700051B99F00F80F55003000360060049800FC
:101D800071049800000C9800110C9800200C980029
:101D9000310C9800400C9800510C980020B19F0025
:101DA00031B19F0040B19F0051B19F0060B19F00D1
:101DB00071B19F0000B99F0011B99F0064016400D8
:101DC0007801410002044400020555006011B8008A
:101DD0000203BE000002BE000403BE006022B80081
:101DE0000000720081807200020173008381730021
:101DF00010003700009CBE000294BE004004980012
:101E0000510498006204980073049800000C980034
:101E1000110C9800220C9800330C9800400C98008C
:101E2000510C9800620C9800730C98000A02B100E3
:101E30000802B000FF0F5500EEFF3E0009007800D9
:101E40004F05BE004F04BE0000000600020AB900A4
:101E5000001BB9000200B80081004200810043006D
:041E60000000060078
:020000040000FA
:101E64000052000045540000555200004E0000008E
:101E7400525500004E0000004C490000535400002D
:101E84000045000058490000540000004E45000081
:101E9400570000004C450000540000004946000073
:101EA40000540000484500004E000000454C00006E
:101EB40053450000004700004F5400004F0000004D
:101EC400474F0000535500004200000052450000F7
:101ED40054550000524E000000520000454D0000D1
:101EE40000500000524900004E5400000049000018
:101EF4004E50000055540000004600004F520000B0
:101F0400005400004F0000004E45000058540000EB
:101F1400005200004541000044000000444100001C
:101F2400544100000053000054410000525400008A
:101F340052000000535400004152000054000000BD
:101F4400535400004F50000052000000535400004E
:101F54004F50000000530000454E000044000000B4
:101F6400524500004345000049560000450000006A
:101F7400434C00004B0000004441000054000000AA
:101F84004249000054520000454100004400000052
:101F94004144000043000000415500005850000037
:101FA400494E00000050000053550000005000004E
:101FB400554C00004C550000500000004445000002
:101FC4004C41000059000000415500005800000039
:101FD40046520000455100000044000055540000E2
:101FE400590000004D410000435200004F00000022
:101FF400454E0000440000004C8F0000508F00004C
:10200400538F0000588F00005D8F0000628F000026
:10201400688F00006F8F0000738F0000798F0000BD
:102024007F8F0000838F0000868F00008B8F00005D
:10203400908F0000958F00009C8F0000A28F0000FD
:10204400A88F0000AD8F0000B28F0000BA8F00008F
:10205400BE8F0000C28F0000CA8F0000CE8F000028
:10206400D58F0000D98F0000E08F0000E68F0000BC
:10207400EA8F0000EF8F0000F48F0000FA8F000059
:1020840000000000002E0000003A000020000000C4
:10209400005E0000BCE20000613F0000DD83000040
:1020A400C29C00007E200000A3FD00001F41000030
:1020B4009DC30000217F0000FCA20000401E000020
:1020C4005F010000E3BD00003E60000082DC000010
:1020D400237D00009FC10000421C0000FEA0000000
:1020E400E1BF00005D03000080DE00003C620000F0
:1020F400BEE00000025C0000DF810000633D0000E0
:102104007C220000C09E00001D430000A1FF0000CF
:1021140046180000FAA40000277900009BC50000BF
:1021240084DA000038660000E5BB000059070000AF
:10213400DB85000067390000BAE40000065800009F
:1021440019470000A5FB000078260000C49A00008F
:10215400653B0000D9870000045A0000B8E600007F
:10216400A7F900001B450000C69800007A2400006F
:10217400F8A60000441A000099C70000257B00005F
:102184003A64000086D800005B050000E7B900004F
:102194008CD20000306E0000EDB30000510F00003F
:1021A4004E100000F2AC00002F71000093CD00002F
:1021B400114F0000ADF30000702E0000CC9200001F
:1021C400D38D00006F310000B2EC00000E5000000F
:1021D400AFF10000134D0000CE900000722C0000FF
:1021E4006D330000D18F00000C520000B0EE0000EF
:1021F400326C00008ED00000530D0000EFB10000DF
:10220400F0AE00004C12000091CF00002D730000CE
:10221400CA94000076280000ABF5000017490000BE
:1022240008560000B4EA000069370000D58B0000AE
:1022340057090000EBB50000366800008AD400009E
:1022440095CB000029770000F4AA0000481600008E
:10225400E9B70000550B000088D60000346A00007E
:102264002B75000097C900004A140000F6A800006E
:10227400742A0000C8960000154B0000A9F700005E
:10228400B6E800000A540000D78900006B3500004E
:1022940049090000004F000009000000480900003F
:1022A400004C0000090000003E000000001B00007C
:1022B4005B00000044000000430000000D0A000021
:1022C4002800000078000000293E0000002E0000D5
:1022D40020000000427500007320000050690000D7
:1022E4007261000074650000207600003300000075
:1022F400436F00006D6D0000756E0000697400008E
:102304007920000046690000726D000077610000CA
:102314007265000020760000372E00003120000096
:102324002D20000062750000696C0000642000002C
:1023340062790000204400007265000067200000FC
:102344004175000067200000747700006F200000D2
:10235400746800006F750000736100006E64000013
:1023640020740000776500006E740000792D000071
:10237400746800007265000065200000627500004A
:102384007A7A000070690000726100007420000015
:10239400646F000074200000636F00006D20000073
:1023A40000290000002E0000203C00000000000076
:1023B4000000000001000000000000000200000016
:1023C40000000000040000000000000008000000FD
:1023D40000000000100000000000000020000000C9
:1023E4000000000040000000000000008000000029
:1023F4000000000080000000000000000001000058
:1024040000000000000200000000000000040000C2
:1024140000000000000800000000000000100000A0
:102424000000000000200000000000000040000048
:102434000000000000800000000000000000000018
:102444000100000000000000020000000000000085
:10245400040000000000000008000000000000006C
:10246400100000000000000014340000040D0000FF
:102474008206000040030000A0010000CF0000001D
:102484006700000044000000220000007F000000FC
:1024940000000000000000002C010000000000000B
:1024A4005802000000000000B0040000000000001A
:1024B4006009000000000000C012000000000000DD
:1024C40080250000000000004038000000000000EB
:1024D400004B0000000000008070000000000000BD
:1024E4000096000000000000C0DA000000000000B8
:1024F40000E100000000000000C200000100000034
:1025040000F400000100000000E8000003000000E7
:1025140030300000302C000000300000300000009B
:10252400080800000808000008000000003000004F
:1025340031320000333400003536000037380000F3
:1025440039410000424300004445000046000000B9
:10255400314100004C53000001420000507600005D
:1025640033000000210000000010000000230000E0
:10257400000F00004240000040050000410200003E
:10258400000000000000000000690000D05D0000B1
:102594006DDB00005D6B0000CB5D000069D00000C6
:1025A4005D00000000000000181C00001D0C00006D
:1025B400161A00000B0F00001E1700001B0000007D
:1025C4001450000001080000010300000000000096
:1025D400003500003F620000610000002900000097
:1025E400000000000020000029000000000000009E
:0825F4000000000000000000DF
:020000040000FA
:1025FC00E0F480000000E800F007B200A1E1210047
:10260C00E140780080C7B30080CF5000100032004A
:10261C0040C6B30080CF50000900320020C6B30082
:10262C0080CF5000080032000040EB0072C7B300AE
:10263C0082CF500008003A0030002000050037001F
:10264C00100020000300370020002000010037009C
:10265C000000EB000040E80000000600421680007D
:10266C0080006100D014290001003200A014290060
:10267C008469020000000000000006005216800071
:10268C00800061003015290001003200001529007E
:10269C008469020000000000000006008000780041
:1026AC0000C3B3000100E0000100320010C3B3000E
:1026BC00126802000000000000000600F0F4800028
:1026CC00D1F48000810F500004003A0070C0B300B8
:1026DC001268020000000000080037000000E8004B
:1026EC00F2072000E1E9210082086000601B29004C
:1026FC00010020006E7E02000000000000000600B9
:10270C00A01A2900010020006E7E020000000000CB
:10271C0010F621001081FB00000320000091B9008D
:10272C0021C9210001004100846902000000000061
:10273C0020F62100100078006400600004003200D4
:10274C00C00A2900010020006E7E0200000000007B
:10275C0060152900846902000000000000000600DA
:10276C00889FBE008A9FBE0080057800E1F480003F
:10277C00D0F48000808F50000C003200A4E12100C6
:10278C008041EB00F2072000037278000000E900A2
:10279C0002006000808F5000FBFF3A00D0F48800EC
:1027AC000041EB00A1E12100827078000B00E900F0
:1027BC00F007B200D2F480000004EB00820F50004E
:1027CC0012003200A1E12100E14078000104E00098
:1027DC0007003A0003003700E44078000104E000F1
:1027EC0005003A000004E800F807B20007003700C3
:1027FC00F3072000A4E121000000E90003006000C1
:10280C00820F5000F4FF3A000004EB00BCFF0700FD
:10281C008B0F54000E003200A9E12100FA072000B2
:10282C0069407C001268020000000000D0F48000B7
:10283C0068F07C000000E8000A006000D0F488001A
:10284C000804E8000A046400888F5500F4FF3A007D
:10285C00D0F480000041EB00A1E1210082707800EF
:10286C00F0F488004F05BE004F04BE0000000600C7
:10287C00889FBE008A9FBE00E8F480000804E9002F
:10288C00F807B200D0F48000800F5400170032001B
:10289C000005EB00A9E121000BEA210069407C0056
:1028AC000004E0000C003A000800E900F007B20058
:1028BC00694078000004E000070032000A05E800D7
:1028CC001B007800800F550003003600800DE800D7
:1028DC0008007800A2FF07000804E900F807B2001E
:1028EC00D0F48000880F5000ECFF3A0070C0B300A9
:1028FC0012680200000000004F05BE004F04BE002D
:10290C0000000600889FBE008A9FBE00E9F480008C
:10291C008904E900F907B200D0F48000808F5400DC
:10292C00180032008000EB00AAE121000BEA210024
:10293C006AC07C000004E0000D003A000900E900C8
:10294C00F007B2006A4078000004E0000800320092
:10295C008100E8001B04E900810F540004003A00D8
:10296C00880D7800090078007DFF0700880078004A
:10297C008904E900F907B200D0F48000890F5000F7
:10298C00EBFF3A0000F58000E10F5000040032002C
:10299C0070C0B30012680200000000001400370081
:1029AC0057FF0700D0F48000E1F48000810F500045
:1029BC0009003200A4E121008041EB00F207200065
:1029CC00037278000000E90002006000808F500064
:1029DC00FBFF3A00D0F488000041EB00A1E121009C
:1029EC0082707800F0F4880000EA21000008EB0007
:1029FC004F05BE004F04BE000000060011C0B3001E
:102A0C0030EA2100014878008000EB0001F58800D5
:102A1C00D0F48000A2E12100017178000000E800F0
:102A2C00F007B200D0F48800F0F48800801529007B
:102A3C00666A0200000000000000060010F621008B
:102A4C00104078000004E00005003A00A0AC28001B
:102A5C0001002000C87E02000000000014003700B6
:102A6C000080FB00010320000180B9002002B000AF
:102A7C00A1C621006100780000000100A0D628004A
:102A8C0001002000C87E020000000000C002A90066
:102A9C00C202A90080D72800010020006E7E02002F
:102AAC000000000080152900666A0200000000008A
:102ABC000000060010F621001004E00005003A00AA
:102ACC00A0AC280001002000C87E0200000000001D
:102ADC0034003700C002A900C202A80021E3A800FC
:102AEC00200020000E67020000000000A000200063
:102AFC00B466020000000000011B2000810F500092
:102B0C001A00360090002000B4660200000000009D
:102B1C00712B2000810F50001400360080E5280036
:102B2C00010020006E7E02000000000080152900CC
:102B3C00666A02000000000010F621009080FB0085
:102B4C00000320000088B9000002B000A1C62100DB
:102B5C006100780000000100C0E4280001002000A2
:102B6C00C87E0200000000000D003700C002A90062
:102B7C00C202A90000AA280001002000C87E0200A1
:102B8C000000000080D72800010020006E7E0200AB
:102B9C000000000080152900666A02000000000099
:102BAC0021E3A90000000600889FBE008A9FBE009A
:102BBC00F1F48000D0F480008004EB00808F500092
:102BCC0010003200AAE121000BC2B3000104E8009E
:102BDC006A407C0000F578000004E00001003A0037
:102BEC000B40780012680200000000008904E80025
:102BFC0088007800F107B200D0F48000810F5000FB
:102C0C00F2FF3A000000E900F007B200D0F48800AF
:102C1C00901529008469020000000000090078006A
:102C2C00FC68020000000000C01529008469020045
:102C3C00000000004F05BE004F04BE00000006005F
:102C4C00F0F48000E1F48000810F500004003A00A1
:102C5C0070C0B300126802000000000018003700BA
:102C6C00D1F48000810F50000C003A000000E90004
:102C7C00F007B200D0F488000041EB00A1E1210084
:102C8C0082707800F0F48800A01B2900010020005D
:102C9C006E7E02000000000009003700E01A2900D7
:102CAC00010020006E7E020000000000E0E921001F
:102CBC001001E900F107200001086100BAFF0700CC
:102CCC0000000600F1F48000E0F48000808F5000DA
:102CDC0004003A0070C0B30012680200000000004B
:102CEC0001003700B0FF070000000600889FBE00FF
:102CFC00F1F48000E0F48000808F500003003A0073
:102D0C0070C0B3001268020000000000E9E9210065
:102D1C00E8F4800019041400F807B200901529009B
:102D2C00846902000000000008007800FC680200C2
:102D3C0000000000C015290084690200000000009A
:102D4C00E0F48000800C78004F04BE000000060008
:102D5C00889FBE00F1F48000D0F48000808F50007A
:102D6C0003003A0070C0B3001268020000000000BB
:102D7C00E9E92100D8F4800019045400F807B200E6
:102D8C0090152900846902000000000008007800FA
:102D9C00FC68020000000000E015290084690200B4
:102DAC0000000000D0F48000800C78004F04BE00BE
:102DBC0000000600889FBE008A9FBE008C9FBE004C
:102DCC008E1F780080467800DAF480008A00E800D4
:102DDC00F107B200E0F48000808F50004B0032000D
:102DEC00FFCF560049003600E0C7B30080CF560035
:102DFC0046003E00F8F48000880F55000D003A00A4
:102E0C000D4078001268020000000000D0F4800031
:102E1C00A1E121008D7078000000E800F007B200FD
:102E2C00D0F488000041EB0082707800F0F4880048
:102E3C003900370090152900846902000000000059
:102E4C0008005500FB0720000B006000FC68020026
:102E5C0000000000E0152900846902000000000059
:102E6C00DAF48000E0E921001000E9008B05600035
:102E7C008A8F550016003200ABE12100281B290077
:102E8C0009002000FC072000EEE921000A80450023
:102E9C00EB407D00114098006B407D000004E00089
:102EAC000500320012680200000000000800BE009D
:102EBC006E7E0200000000000A05E9000C056500AA
:102ECC001E00E9000C0060008A0F5000EFFF3A0072
:102EDC000D4078001268020000000000E1E92100BA
:102EEC0011007800A2E121000D7178000001E800CA
:102EFC00F007200080086100D1F480008100E80018
:102F0C0000806000D0F488000300370070C0B3006C
:102F1C0012680200000000004F0778004F06BE0048
:102F2C004F05BE004F04BE000000060020EA210041
:102F3C0041C0B30090CF1000050036004A7E02005D
:102F4C000000000020EA21000048EB0010003700D0
:102F5C00F0F48000E1F48000810F50000900320091
:102F6C000000E900F2072000E1E92100820860007E
:102F7C00E01A2900010020006E7E02000000000013
:102F8C000300370070C0B30012680200000000009C
:102F9C00000006000A68020000000000B1C5B30082
:102FAC00814F500029003A000A680200000000001E
:102FBC0011C4B300814F50001300320007003E00D3
:102FCC0011C3B300814F50001300320041C3B30052
:102FDC00814F50001D003A001600370031C4B30079
:102FEC00814F5000060032000900390041C4B30083
:102FFC00814F500015003A00CCFF0700130037003A
:10300C00AEFD07001100370019FE07000F00370056
:10301C003CFE07000D0037000A68020000000000AB
:10302C00E1C7B300814F500008003A002FFF0700A2
:10303C00060037000A68020000000000E1C7B30078
:10304C00814F500001003A0041FF070000000600CC
:10305C00889FBE00E001290001002000C87E02000C
:10306C00000000000049280001002000C87E02007A
:10307C000000000000BF2800010020006E7E02004E
:10308C000000000010F621009080FB0000032000DF
:10309C000088B9004002B000A1C621006100780090
:1030AC000000010060022900010020006E7E020079
:1030BC00000000000040200068FD07000010200008
:1030CC0066FD07000020200064FD070000042000BE
:1030DC0062FD07000008200060FD07008015290034
:1030EC00666A02000000000020192900010020007F
:1030FC006E7E02000000000021E3A800A00020006A
:10310C00B46602000000000012690200000000001A
:10311C0088212900090020000800BE006E7E0200F4
:10312C000000000090C0B300126802000000000014
:10313C0090002000B466020000000000126902003A
:10314C00000000000800BE006E7E020000000000BF
:10315C0090C0B3001268020000000000C000200004
:10316C00B4660200000000001269020000000000BA
:10317C000800BE006E7E02000000000090C0B3008C
:10318C001268020000000000B0002000B4660200CB
:10319C000000000012690200000000000800BE00E0
:1031AC006E7E02000000000090C0B30012680200A6
:1031BC000000000021E3A900004020002FFD0700C3
:1031CC00001020002DFD0700002020002BFD070023
:1031DC000004200029FD07000008200027FD07003F
:1031EC0080152900666A0200000000004F04BE0032
:1031FC000000060020162900010020006E7E02004F
:10320C0000000000C1BF2A000000EB00EC660200C9
:10321C00000000002868020000000000600D29007A
:10322C00010020006E7E020000000000E1BF2A00B9
:10323C000000EB00EC6602000000000028680200B1
:10324C000000000080152900666A020000000000E2
:10325C00E0F1280001002000C87E02000000000000
:10326C007BFF0700C202AB000500320080E528009E
:10327C00010020006E7E02000000000004003700F8
:10328C0080D72800010020006E7E020000000000A4
:10329C00C0C2B300126802000000000000C2B300FC
:1032AC001268020000000000CB62AB000500320087
:1032BC0060D12800010020006E7E0200000000009A
:1032CC000400370060C52800010020006E7E02005B
:1032DC0000000000C0C2B300126802000000000031
:1032EC0000C2B300126802000000000060F621006A
:1032FC00104078007040600005003200008D2800FE
:10330C0001002000C87E020000000000040037000D
:10331C00C0A1280001002000C87E020000000000AF
:10332C0060F62100104078006840600005003A000B
:10333C00E0AD2800010020006E7E020000000000BD
:10334C000400370020AF2800010020006E7E020030
:10335C0000000000C0C2B3001268020000000000B0
:10336C0000C2B3001268020000000000A0B12800E7
:10337C00010020006E7E02000000000050F62100CB
:10338C0010407800EE680200000000008015290053
:10339C00666A02000000000060F621001040780010
:1033AC0063406000E14F500005003A0060C4280003
:1033BC0001002000C87E020000000000040037005D
:1033CC0060C3280001002000C87E0200000000003D
:1033DC0010F621009080FB00000320000088B9004B
:1033EC006002B000A1C6210061007800000001005D
:1033FC00E0F1280001002000C87E0200000000005F
:10340C0000000600889FBE008A1F7800E3F480004D
:10341C0003007800F007B200A1E1210061407800C0
:10342C00F1CCB30081404000E8CF50001A003E00C0
:10343C000080FB000003B1008300E800F107B2003C
:10344C00A2E1210062C1780004CDB3000442410026
:10345C0011002000E94F520076003E00F8072000D2
:10346C00A7E1210006CDB3006A02B9000280FB007F
:10347C00040040000003B1008100E800038140001B
:10348C00080161006741790006424100E94F520092
:10349C00F5FF36006700370001C3B300814F5000C1
:1034AC0060003A000300E800F007B200A1E121003F
:1034BC006141780020C6B300804F51000B003A00E8
:1034CC000380E800F007B200A1E12100614178001F
:1034DC0004CDB300044241000000EB0021002000A9
:1034EC00E14F5200050036005200370020C4B300F3
:1034FC00804F510010003A00F1FF3700F707200011
:10350C00A6E1210005CDB300000040000281FB00C4
:10351C00020040000003B1008100E800038140007C
:10352C00070161006641790005424100E14F5200FC
:10353C00F5FF36003F00370080C7B300804F5100C5
:10354C000A00320080C5B300804F51001E003A00C3
:10355C00090037004400DD000003B1000281FB00CC
:10356C00020040008100E8000A0037000000EB0078
:10357C0021002000020037000000EB002100200099
:10358C00F8072000A6E1210007CDB300F9CBB3006A
:10359C00FAC9B300038240000802620066417A0057
:1035AC0087424100E9CF5200EAFF360089424100D0
:1035BC00E5CF5200260036008A424100E5CF52008A
:1035CC00230036001B00370004CDB3000442410039
:1035DC000000EB0011002000E94F520015003E00E6
:1035EC000280FB000003B100F8072000A7E12100D6
:1035FC0006CDB3006A02B9000280FB000400400053
:10360C000003B1008100E800038140000801610063
:10361C006741790006424100E94F5200F5FF360040
:10362C000400370060F621001074A0000000EB00CD
:10363C0004003700E2F4800082804000F107B20001
:10364C00E1F488004F0578004F04BE00000006002E
:10365C000254A00002737A004400DD007005B10032
:10366C000281FB0002004000BEFF3700881F78007B
:10367C00E1F480000100E800F007B200A2E12100B3
:10368C00E241780010002000A2C3B30082CF5100A9
:10369C0009003A008180E800F8072000888060006B
:1036AC00E1F4880057FF0700E1F480008100E90095
:1036BC0008846000E8F488004F04780000000600DD
:1036CC00881F7800E1F480000100E800F007B200E8
:1036DC00A2E12100E24178000000EB00B2C3B3008C
:1036EC0082CF510009003A008180E800F8072000E1
:1036FC0088806000E1F4880042FF0700E1F480005C
:10370C008100E90008846000E8F488004F04780028
:10371C0000000600E0F48000A1E121006141780086
:10372C0001C2B300814F510009003A00F407200098
:10373C00A3E12100014178000000E80004006000D2
:10374C00E340780082CF5000FBFF3200E0F48800A9
:10375C0000000600889FBE008A1F78000044780095
:10376C00E0F480000000E800F007B200E0F488000C
:10377C00E8FF070023FF0700000578000804E000BD
:10378C000600320050F62100904078000A007800C4
:10379C00C266020000000000000578000A407800B4
:1037AC005668020000000000E819290009002000FA
:1037BC000800BE006E7E0200000000000A40780087
:1037CC00EE680200000000000800BE006E7E0200E1
:1037DC00000000000A407800506902000000000060
:1037EC0080152900666A0200000000004F05780071
:1037FC004F04BE00000006001000FA00889FBE00B7
:10380C008A9FBE008C9FBE005007980061079800ED
:10381C007207980043079800A81B29000900200094
:10382C006AB028000B0020000016290084690200F1
:10383C00000000005E0090000000E00004003D006D
:10384C0040162900846902000000000003003700C4
:10385C002E489000EE68020000000000601629005F
:10386C0084690200000000008000EB003107980022
:10387C00810678000A68020000000000004678000B
:10388C00ED4F56004600320005003E00E84F560052
:10389C000A003200EA4F56002C003A004000370074
:1038AC00D0C2B300804F56001800320080C7B3005E
:1038BC00804F560025003A00200037000D00E00034
:1038CC00050032008D06E9000800BE006E7E020085
:1038DC0000000000E7FF37003E0090000000E00011
:1038EC00060032000800BE006E7E020000000000E0
:1038FC008000EB0031079800DEFF370070C0B3008A
:10390C001268020000000000DAFF37000D00E00032
:10391C0006003A00D0C2B30012680200000000009A
:10392C001000200030079800D2FF370070C0B300A1
:10393C001268020000000000CEFF3700CE0090009D
:10394C000100E000120032003500370001CDB30059
:10395C0001404600E94F50000D003E00E38F560039
:10396C000500340070C0B3001268020000000000B3
:10397C004D002000BFFF37000C4078001268020099
:10398C00000000000CF77E008D06E800B9FF370040
:10399C0070C0B3001268020000000000B5FF3700D1
:1039AC0080152900666A0200000000000D00E0008E
:1039BC001F0032000D00E9000001EB00080033008D
:1039CC000E0078008D0647006A11B900B080FB002C
:1039DC000103B100028140008D0F5000FAFF3A0044
:1039EC006E009000820F500009003C00FE00900019
:1039FC00828F5000060035003E0090000000E00071
:103A0C000A0032000201EA00520798000800370051
:103A1C000A00BE00C87E02000000000082FF3700D2
:103A2C008080EB0051079800010037005207980086
:103A3C005E0090004F06BE004F05BE004F04BE0056
:103A4C000080FA00000006000E00FA00889FBE00FD
:103A5C008A9FBE008C9FBE00E0F480000004E90049
:103A6C00F807B2001D002000880F5000280032001B
:103A7C00A9E12100FB07200069407C000004E00064
:103A8C001E003A000806E8000B06660069407E003E
:103A9C000004E000190032000D407800EE680200CE
:103AAC00000000009016290084690200000000004C
:103ABC0069407E000004E000080032000885E80040
:103ACC0012680200000000000B00650069407800DD
:103ADC000A05E8000004E000F9FF3A000D804600FA
:103AEC000C3778008D06E800E78F5600080032008E
:103AFC0080152900666A0200000000000804E90035
:103B0C000B046400E0F48000800F5400DAFF3A00EC
:103B1C0080152900666A020000000000A00C290034
:103B2C0001002000C87E02000000000013002000ED
:103B3C000D017800830078000000EB002EFF0700D9
:103B4C008000E800E18F50000A00360000004000C1
:103B5C00EE02780005007800F007B200A1E1210028
:103B6C00E14078000000EB000104E00006003A00A0
:103B7C001200370080152900666A02000000000060
:103B8C00100020001C003700D6F480000000EB0071
:103B9C00F3072000A2E121000602400003026200AC
:103BAC0001717A000000E80085004000838060000D
:103BBC00E2C078000104E000F7FF3A00D2F4800084
:103BCC000201E900F107200001016100E2F4880024
:103BDC000281E8000000410001006000D0F4880080
:103BEC000000E900810060000041EB00A0E1210031
:103BFC0002F078000000EB004F06BE004F05BE003F
:103C0C004F04BE000080FA0000000600889FBE0032
:103C1C008A9FBE00E0F480000000E800F007B200CC
:103C2C00E0F48800BBFE0700F6FD07000000E00092
:103C3C0045003A000004EB0009032000AAC621004D
:103C4C000840E800EE680200000000009016290011
:103C5C00846902000000000009C0B9008002B000B5
:103C6C000A004000666A0200000000000804E80038
:103C7C00E90F5400F2FF3A0060C828000100200050
:103C8C00C87E02000000000060F621001074A10044
:103C9C0013002000920020008300780003007800BD
:103CAC00D5FE07000004E9000000E800E10F500019
:103CBC0005003E0040F1280001002000C87E0200F3
:103CCC00000000003F00370019F621001980FB00AE
:103CDC000A0320000A80B9002002B000ABC6210004
:103CEC006B007800000001007E66020000000000FE
:103CFC00884C78000880FB000A80B9007E054000E3
:103D0C006B007D0000000100A0D6280001002000FF
:103D1C00C87E0200000000000800E0000500320030
:103D2C00C222A800A059280001002000C87E020071
:103D3C0000000000A015290001002000C87E020030
:103D4C00000000001F0037000004E900E80F5400D9
:103D5C0018003C0019F621001980FB000A03200012
:103D6C000A80B9002002B000ABC621006B007800BD
:103D7C00000001007E66020000000000884C780004
:103D8C000880FB000A80B9007E0540006B007D00B6
:103D9C00000001000800E00001003200C222A8006F
:103DAC00A015290001002000C87E020000000000C0
:103DBC000400370060C9280001002000C87E020002
:103DCC0000000000D0F480000000E900F007B20011
:103DDC00E0F488004F05BE004F04BE000000060052
:103DEC00881F7800E0F480000000E800F007B200C3
:103DFC00E0F4880047FE070082FD07008000E90020
:103E0C00E98F500003003E00F1F521008048E900E5
:103E1C000D00370060F621001074A100403428001A
:103E2C0001002000C87E0200000000008001EB00B1
:103E3C00A200200011002000900020006EFE070060
:103E4C00F1F521008048E9000004EB00F0F52100B9
:103E5C0091C0B30090CF100011003A002DFE070066
:103E6C0068FD0700000478000800E0000C003A0030
:103E7C0060F621001074A10060CF28000100200022
:103E8C00C87E0200000000008001EB00F2FF27005A
:103E9C00830078002002200057FE07000004780001
:103EAC0020D3280001002000C87E02000000000082
:103EBC0040E0280001002000C87E02000000000045
:103ECC00546B020000000000F0F5210091C0B3001B
:103EDC0090CF100003003A00080078005E6B0200DF
:103EEC0000000000386702000000000008C2B300A8
:103EFC000A68020000000000884F5000FCFF3A00E6
:103F0C004F04780000000600E0F480000000E80098
:103F1C00F007B200E0F48800FEFD070039FD070051
:103F2C008000E900E38F500003003E0001F6210001
:103F3C008048E9000D00370060F621001074A100E4
:103F4C00808E280001002000C87E020000000000C6
:103F5C008001EB00420020001100200001007800DD
:103F6C0025FE070001F621008048E90040D2280018
:103F7C0001002000C87E02000000000000000600C6
:103F8C00889FBE008A9FBE00C0162900846902006B
:103F9C0000000000E0C2B300126802000000000044
:103FAC00E0F52100104078001268020000000000CB
:103FBC00D1FA8000F0442000808F500004003A00B9
:103FCC0060CD2800010020006E7E02000000000081
:103FDC0080152900666A020000000000A017290065
:103FEC008469020000000000B0C5B3001268020032
:103FFC0000000000190020000004EB000A03200060
:10400C00ABC62100020037000804E8008904E80070
:10401C000800E0007300320000C2B3001268020016
:10402C00000000000AC0B9008002B0000B00400084
:10403C008469020000000000E88F5400F2FF360093
:10404C00D0C5B300126802000000000080F2280006
:10405C00010020006E7E020000000000A1BF2A00BB
:10406C000000EB00EC660200000000000004780089
:10407C004840DE00EE68020000000000E0C2B30021
:10408C00126802000000000008407800EE68020090
:10409C000000000080152900666A02000000000084
:1040AC00000D2900010020006E7E020000000000BF
:1040BC00A8F5210018007800286802000000000014
:1040CC0000102900010020006E7E0200000000009C
:1040DC00E0FA8000286802000000000080F7280049
:1040EC00010020006E7E020000000000F044200061
:1040FC00980F100005003A00202129000100200033
:10410C006E7E020000000000040037000021290030
:10411C00010020006E7E020000000000E0FA80002A
:10412C0021042300810F50001100320004003E00D6
:10413C0031002300810F50001C003A0007003700AB
:10414C0031042300810F50000E0032006104230063
:10415C00810F500015003A000F0037008020290015
:10416C00010020006E7E02000000000013003700EA
:10417C00A0202900010020006E7E0200000000003B
:10418C000E003700C0202900010020006E7E0200C6
:10419C000000000009003700E02029000100200089
:1041AC006E7E02000000000004003700601A290037
:1041BC00010020006E7E020000000000301D29006E
:1041CC00666A02000000000060A0280001002000C8
:1041DC00C87E0200000000004F05BE004F04BE0068
:1041EC00000006000AC0B9008002B0000B004000BD
:1041FC00846902000000000083FF37001E00FA00F3
:10420C00889FBE008A9FBE008C9FBE000000EB0002
:10421C00E0F48800D0F48800F0F4880011F6210056
:10422C008048780061F621001174A10041EA210058
:10423C00470009008058EB0060F78800C20A29008B
:10424C000300200022079800330798006AC6280054
:10425C000B0020006000290001002000008FBE0030
:10426C004A0798005B07980010F621001081FB00AC
:10427C00000320000091B90021C921000100410078
:10428C00846902000000000020F621001000780074
:10429C0064006000040032002E009000BE0090000C
:1042AC006E7E020000000000601529008469020087
:1042BC000000000049EA2100ADE121006CF621006C
:1042CC00F700370060F780000000E000410032008A
:1042DC000000E90060F788007801B900E940790036
:1042EC000104E000130032000004EB00D2F4800063
:1042FC00817679007800B9000000440069407800AC
:10430C0012680200000000000804E800D0F48000ED
:10431C000000E800F007B200D0F4880060F78000DD
:10432C007801B90082004400E9C078000104E00083
:10433C00EEFF3A000000EB0060F788002500370024
:10434C009C41780064C061002400320011F6210009
:10435C001180FB000880B9007A0040006A007800E8
:10436C00000001000004E0001C00320012F62100E5
:10437C001280FB000880B9008002B0000A004000E7
:10438C0084690200000000006015290084690200A5
:10439C0000000000EBF48000D0F48000808F55000A
:1043AC000E0032008B0F50000C0032006DC07D00EF
:1043BC001268020000000000F307200083856500EE
:1043CC008B05E800D0F480008B0F50000300320006
:1043DC00F6FF370008032000AAC621005E67020022
:1043EC00000000000004E000D5FF3200626B020008
:1043FC00000000000004E00003003200686B0200C3
:10440C0000000000A60037000A680200000000004F
:10441C000081FB008001EB00F1072000810F5100AF
:10442C00E08F59009D003E000260010093003700B0
:10443C008C00370083003700980037007D00370070
:10444C008A0037008100370094003700770037006E
:10445C009200370087003700900037008F0037003C
:10446C00840037007D0037008C003700790037005E
:10447C008A00370089003700880037008700370032
:10448C008600370085003700840037008300370032
:10449C008200370081003700680037007F0037004A
:1044AC007E0037007D0037007C0037007B00370032
:1044BC007A00370079003700780037007700370032
:1044CC007600370075003700740037007300370032
:1044DC007200370071003700700037006F00370032
:1044EC006E0037006D0037006C0037006B00370032
:1044FC006A00370069003700680037006700370032
:10450C006600370065003700640037006300370031
:10451C006200370061003700600037005F00370031
:10452C005E0037005D0037005C0037005B00370031
:10453C005A00370059003700580037005700370031
:10454C005600370055003700540037005300370031
:10455C005200370051003700500037004F00370031
:10456C004E0037004D0037004C0037004B00370031
:10457C004A00370049003700480037004700370031
:10458C004600370045003700440037004300370031
:10459C004200370041003700400037003F00370031
:1045AC003E0037003D0037003C0037003B00370031
:1045BC003A00370039003700380037003700370031
:1045CC003600370035003700340037003300370031
:1045DC003200370031003700300037002F00370031
:1045EC002E0037002D0037002C0037002B00370031
:1045FC002A00370029003700280037002700370031
:10460C002600370025003700240037002300370030
:10461C002200370021003700200037001F00370030
:10462C001E0037001D0037000200370084F9070018
:10463C001B003700A3F907001900370055FA0700D3
:10464C001700370039FA0700150037001BF8070070
:10465C001300370086F8070011003700A9F807008F
:10466C000F003700A1F907000D003700B8F907005B
:10467C000B003700E1F807000900370021EA2100A0
:10468C001140E80080487800F44F500004003A00D4
:10469C004E4002000000000001003700C5F9070081
:1046AC0032EA21001204E00006FF3200D3F480004D
:1046BC00130F9800E1F48000020078000048EB0032
:1046CC0060F621001074A10020F621001000780083
:1046DC006400600007003200583602000000000041
:1046EC00A015290001002000C87E02000000000077
:1046FC0014043700510F98000040EB00005798004D
:10470C008CDF28000D002000A2F028000300200000
:10471C0062079800730798004E059000DE05900024
:10472C00E0F48000A1E12100614178000281FB00EE
:10473C008001EB00E1072000810F5100E08F590050
:10474C00D8033E0002600100D8033700D5033700C0
:10475C00D4033700D3033700D2033700D10337001B
:10476C00D0033700CF033700CE033700CD0337001B
:10477C00CE033700CB033700CA033700CB03370017
:10478C00C8033700C7033700C6033700C50337001B
:10479C00C4033700C3033700C2033700C10337001B
:1047AC00C0033700BF033700BE033700BD0337001B
:1047BC00BC033700BB033700BA033700B90337001B
:1047CC00B8033700B7033700B80337009B03370033
:1047DC0007023700F3003700FA0037004B013700AF
:1047EC0039013700AF033700E3013700AD03370061
:1047FC00AC033700AB033700AC0337004E03370074
:10480C0067033700320337006E0237006D02370042
:10481C006C0237006B0237006A02370069023700FE
:10482C0068023700670237006602370065023700FE
:10483C009C0337009B03370053013700C600370039
:10484C009803370047003700F8003700F4003700B2
:10485C00940337006A0037001801370091033700C2
:10486C00900337008F0337008E0337008D0337001A
:10487C008C0337008B0337006B003700890337003C
:10488C0088033700870337008D0037008503370016
:10489C00840337003101370082033700810337006E
:1048AC0080033700F30037007E0337007D033700A9
:1048BC007C03370020023700120337002F02370029
:1048CC00450337002903370076033700D100370042
:1048DC002F00370042003700EA0037007103370021
:1048EC003100370033003700160037002000370046
:1048FC006C0337006B03370055003700220037007C
:10490C0068033700240037005B003700650337006D
:10491C009B0237000E01370062033700610337003A
:10492C001F003700D50037005E0337005D033700EA
:10493C005C033700080237008A0037001802370082
:10494C008B00370040FC07000000E00057033A00E2
:10495C00E2F48000520F9800D3F48000130F9800FB
:10496C0052033700D27E0200000000004F033700D4
:10497C0083FD070010F621001004E0004B03320009
:10498C001CFA070049033700A0FC07004703370057
:10499C0013FD0700450337005BFD07004303370099
:1049AC00ABF9070041033700B654020000000000C9
:1049BC003E03370010F621001004E00005003A0019
:1049CC00A0AC280001002000C87E020000000000FE
:1049DC0036033700A25302000000000033033700F7
:1049EC0060F62100C1CFB30010C8600060C328007E
:1049FC0001002000C87E0200000000002B033700DD
:104A0C0060F62100C1CFB30090C060000104A0008B
:104A1C000148780060C4280001002000C87E020014
:104A2C00000000002103370060F621001034A000C4
:104A3C0020AF2800010020006E7E02000000000064
:104A4C0080152900666A0200000000001703370079
:104A5C0060F621001034A100E0AD28000100200018
:104A6C006E7E02000000000080152900666A0200BC
:104A7C00000000000D03370010F621001004E000C8
:104A8C0005003A00A0AC280001002000C87E0200FE
:104A9C000000000005033700CB62A900C962A90021
:104AAC0060C52800010020006E7E0200000000009E
:104ABC0080152900666A020000000000FB02370026
:104ACC0010F621001004E00005003A00A0AC28000C
:104ADC0001002000C87E020000000000F302370035
:104AEC0060F62100104078007040600004003A002D
:104AFC000090280001002000C87E02000000000089
:104B0C00C962A800CB62A90060D128000100200076
:104B1C006E7E02000000000080152900666A02000B
:104B2C000000000021E3A800B0002000B4660200E1
:104B3C0000000000F1042000810F500004003E0032
:104B4C000099280001002000C87E0200000000002F
:104B5C0021E3A900D50237000040EB00FDFA070065
:104B6C00D202370010C0B300FAFA0700CF023700A8
:104B7C0010F621001004E00005003A0011C0B3004B
:104B8C0001407800F275020000000000C7023700F7
:104B9C00E0BD280001002000C87E020000000000DB
:104BAC00C2023700E015290001002000C87E020077
:104BBC0000000000546B0200000000000000FE002A
:104BCC00BA0237005E7F0200000000000004E00023
:104BDC00B602320011C0B300A07F22000148780059
:104BEC00E0FF280001002000C87E02000000000049
:104BFC00400620000E670200000000007E660200E6
:104C0C0000000000546B0200000000000000FE00D9
:104C1C00A60237004C58020000000000A302370027
:104C2C003058020000000000A00237008FFA070085
:104C3C00000478000800E0009C023200891529006D
:104C4C000A00BE006E7E02000000000068580200E0
:104C5C00000000000080FB0090F6070009007800BF
:104C6C00666A0200000000000804E900F4FF3A0044
:104C7C008E0237008FF707008C0237006FF70700A2
:104C8C008A02370040E32800010020006E7E0200FB
:104C9C00000000004469020000000000802129008F
:104CAC00010020006E7E020000000000801529002B
:104CBC00666A0200000000007C023700726A020083
:104CCC00000000007902370068FA07000004780041
:104CDC00200B2900010020006E7E02000000000065
:104CEC0008007800FC68020000000000E01F2900AA
:104CFC0001002000C87E02000000000008007800BF
:104D0C0018670200000000006802370057FA07001D
:104D1C0000047800200B2900010020006E7E0200A8
:104D2C000000000008007800FC6802000000000091
:104D3C004020290001002000C87E02000000000075
:104D4C00080078000E6702000000000057023700D0
:104D5C0020F621001020A0005402370010F621008C
:104D6C001004E00005003A00A0AC2800010020006F
:104D7C00C87E0200000000004C0237008C58020074
:104D8C00000000004902370061F621001174A000F8
:104D9C000004E800F807B200A1E1210061417C00A9
:104DAC000204E0001700320016C0B300110020000E
:104DBC00E5C3B3008043EB00F4072000A3E121001E
:104DCC00854F510001003A00074378008100E8004C
:104DDC000081400004016100634179000204E0009D
:104DEC00F7FF3A0060F621004733DD0010417800F0
:104DFC000274A10006487100FA8F500001003400C3
:104E0C001074A00060F621001004E00027023500A9
:104E1C00E8F488007BF9070000047800E0F48000D7
:104E2C0080007800F107B200A2E1210062C1780095
:104E3C00D1C3B300814F510021003A008800E90032
:104E4C00E28F50001B003E000000E800F007B200AB
:104E5C00E0F488000801E9007811B90030EA21007B
:104E6C0080004100010178000000EB008041EB0064
:104E7C00036978000000E800F80F5000FCFF3A00CE
:104E8C00E0F48000A5E12100E4C3B300F3072000A7
:104E9C0003003700826878000000E800030060001F
:104EAC0065417800844F5100FAFF3A00E0F4880025
:104EBC00FE01370060F621001074A000FB013700E2
:104ECC000800E00021003A0040EA2100400F980061
:104EDC0011002000581D29006915290001017800D6
:104EEC00620F98002C0F98003D0F98000A06BE0028
:104EFC004AEA21004E589000EE68020000000000C3
:104F0C000800780084690200000000000A007800A4
:104F1C00846902000000000009007800666A020043
:104F2C0000000000EE0890008100E800610F98007E
:104F3C0078054500E48F5000EEFF3A000C05BE00EA
:104F4C002E0E9000BE0E9000D80137000800E9002C
:104F5C00E20F500005003E0080152900666A020031
:104F6C000000000068F78800D001370060F62100CF
:104F7C001074A000CD0137000000E800F8072000F5
:104F8C0008006000E0F488001EF907008004780037
:104F9C00E0F90700E0F4800008046000A0E12100C3
:104FAC00E0407C0090C2B30080CF50000D003A006E
:104FBC0010F621009080FB00000320000088B9004F
:104FCC007C004000A1C62100E100780009007800B7
:104FDC000100010080152900666A02000000000033
:104FEC00B201370060F621001074A000AF01370049
:104FFC0061F621001174A0008000E800F107B200F6
:10500C00A2E12100E2C078000104E00012003200AD
:10501C000080E80015C0B30024C2B3000043EB00CD
:10502C00F307200084CF500001003A00864278003C
:10503C0083006000E2C078000000E8000104E0009A
:10504C00F8FF3A0060F62100C72ADD009040780096
:10505C000174A10005C8700060F621001004E00086
:10506C0092013500800B2900010020006E7E0200A9
:10507C000000000020C2B300126802000000000013
:10508C00E1F480008100E800F107B200A0E121000A
:10509C0060C0780022C2B300824F50001E00320064
:1050AC00A8E1210069F62100E1F4880012680200F1
:1050BC0000000000E0F48000684078000080FB00F5
:1050CC0019417800E84061000400320053F62100D9
:1050DC0093407800C26602000000000011F6210027
:1050EC001181FB00010320000191B900680141000E
:1050FC00A3C62100E300790001000100E1F4800067
:10510C008100E800F107B20068C0780022C2B30049
:10511C00824F5000E4FF3A00E1F4880020C2B30053
:10512C00126802000000000080152900666A020067
:10513C00000000005D01370010F621009080FB009C
:10514C00000320000088B900A2C62100620078008C
:10515C00000001005501370010F621009080FB0083
:10516C00000320000088B9000080E800A1C62100DF
:10517C0061007800000001004C01370010F621009E
:10518C009080FB00000320000088B9006400400000
:10519C00A1C6210061007800000001004301370026
:1051AC0010F621009080FB00000320000088B9005D
:1051BC0066004000A1C621006100780000000100DB
:1051CC003A013700800B2900010020006E7E02009E
:1051DC00000000008BF80700400F9800E0F48000FE
:1051EC000000E900F007B200E0F488001FF90700A6
:1051FC000000E800200F980031F907000000E000E3
:10520C005300320051F621008048780011C0B300E1
:10521C00E80F500001003C008040EB0060F62100DC
:10522C00E1C06000C508DD00104178000254A10007
:10523C0001487100460037004E089000EA6A0200EF
:10524C000000000002C2B30061F6210011406100B1
:10525C0005003A0080C0B30053F62100934F1000B4
:10526C0005003A000B00370002C1B30051F62100D3
:10527C00914F110007003200B0C3B3001268020056
:10528C000000000053F6210013407800EE68020085
:10529C000000000061F621009140780068C06000B9
:1052AC000600320052F62100924078004E08900021
:1052BC00C266020000000000400F980013F62100A7
:1052CC009380FB00000320000088B90068004000B8
:1052DC00A2C62100E20078004E08900001000100F7
:1052EC00200F980000C2B3001268020000000000FA
:1052FC0001C4B30063F6210013C060001800320033
:10530C000800BE006E7E02000000000062F6210064
:10531C0012417800684061000600320053F621000B
:10532C00934078002E089000C26602000000000036
:10533C00200F98002E089000EA6A0200000000007E
:10534C0000C2B30012680200000000000400370025
:10535C00E8142900090020002E089000600F980026
:10536C00EE0890008100E900610F9800B2FF3A004E
:10537C0080152900666A020000000000CB0037008F
:10538C00E0142900010020006E7E020000000000E5
:10539C0097F40700005F9800B4F807000004780049
:1053AC00C7F807000000E0000C00320051F62100A5
:1053BC008048780011C0B300E80F500001003C0099
:1053CC008040EB0060F62100E1C06000C508DD0004
:1053DC00104178000254A100014871000E59900050
:1053EC000204E0000400320000F621009041780035
:1053FC00035798000248E9000800E0002A00320038
:10540C0069F6210011F621001180FB000203200037
:10541C000280B9006A004000A3C621006300780036
:10542C000000010019417800E840610004003200DE
:10543C0053F6210093407800C26602000000000081
:10544C00EA6A02000000000001C2B30019C060004B
:10545C0005003A0083C0B30052F6210092CF110030
:10546C0005003A000B00370001C1B30050F62100D3
:10547C0090CF100007003200B0C3B30012680200D6
:10548C000000000052F6210012407800EE68020085
:10549C000000000000C2B30012680200000000000F
:1054AC000804E900D7FF3A008E5990000304E0008D
:1054BC000300320000F621008E5090000148780065
:1054CC0080152900666A0200000000007700370092
:1054DC00E00B290001002000C87E02000000000043
:1054EC0010F621009080FB00000320000088B9001A
:1054FC006C004000A1C62100610078000000010092
:10550C006A003700400C290001002000C87E020010
:10551C000000000010F621009080FB00000320002A
:10552C000088B9006E004000A1C62100610078001F
:10553C00000001005D00370060EF28000100200032
:10554C00C87E02000000000010F621009080FB00D5
:10555C00000320000088B90070004000A1C62100A3
:10556C0061007800000001005000370000F02800B6
:10557C0001002000C87E02000000000010F621008F
:10558C009080FB00000320000088B90072004000EE
:10559C00A1C6210061007800000001004300370023
:1055AC00C0EE2800010020006E7E0200000000000A
:1055BC0010F621009080FB00000320000088B90049
:1055CC0074004000A1C621006100780000000100B9
:1055DC0032F407003500370024F807000004780087
:1055EC006E009000FE0090006E7E02000000000035
:1055FC0008007800EA6A0200000000000800E000E1
:10560C000A00320019F621009980FB0000032000EB
:10561C000088B90076004000A2C621006200780024
:10562C00000001000804E900F7FF3A00801529008A
:10563C00666A0200000000001C0037000BF807002F
:10564C00000478001E00BE006E7E02000000000008
:10565C000800E0000F00320019F621009980FB00D1
:10566C00000320000088B90078004000A3C6210088
:10567C0063007800000001000080FB0007F40700C5
:10568C0000C2B30012680200000000000804E90028
:10569C00F2FF3A000C00BE00C87E020000000000C1
:1056AC000200370060F621001074A000E0F48000C6
:1056BC000000E800F007B200E0F488000040EB00C6
:1056CC0061F621001104E00018003D0060C72800BD
:1056DC00010020006E7E020000000000E0F480005B
:1056EC00DE089000808F5000040031000140500013
:1056FC00EE680200000000000600370001C8B3008D
:10570C00014040002E59900002405000EE6802000B
:10571C000000000060F621001074A1008015290023
:10572C00666A02000000000010C0B300D1F48000D3
:10573C00E2F48000810F5100020032000004E0000E
:10574C00F7FB32009E099000E3F48800D3F4880044
:10575C0030EA21000048EB00C3FA370010E080006B
:10576C00218021006141780031C8B300814F510084
:10577C000E003A000000E80010E0880021802100B3
:10578C006141780001CEB300814F510007003E000B
:10579C00218021008100400002CEB3000000E8000F
:1057AC00D14F1100FDFF360010E08800000006000C
:1057BC0022802100124278000041EB0003CEB3009E
:1057CC00834F520023003600328021009281FB006F
:1057DC00C819DD00428021001281FB0002814100CA
:1057EC00820F500010003A000B0037008202E800D4
:1057FC0063C37A004833DD008282E800E3C27A009A
:10580C008582FB0085024300850F500003003200A7
:10581C000442B000080037000001EB008208780059
:10582C0012C0B3000B0037000442B0000001EB00C3
:10583C002380210007CEB3000482FB0063024200E8
:10584C000401410063427900874F5200E7FF3E009C
:10585C000041EB00024078000000060000017800D7
:10586C00E6F480009240780010C0B3000104E00020
:10587C0016003200A0E1210060407B0080CF500078
:10588C000700320003003700E5C17800834F510058
:10589C0007003200E6F488000040EB000B003700F4
:1058AC000200780086007800F4072000A5E12100B2
:1058BC008100E80084806000E1F4880050417800A9
:1058CC000204E000F0FF3A0010C0B3000000060034
:1058DC00889FBE008A1F7800C9FF28000004EB00D7
