:020000040000FA
:100000000002040000000000A2040000A20400009E
:10001000A2040000A2040000A2040000A204000048
:10002000A2040000A2040000A2040000A204000038
:10003000A2040000A2040000A2040000A204000028
:10004000A2040000A2040000A2040000A204000018
:10005000A20400006004000082040000A20400006A
:10006000A2040000A2040000A2040000A2040000F8
:10007000A2040000A2040000A2040000A2040000E8
:10008000A2040000A2040000A2040000A2040000D8
:10009000A2040000A2040000A2040000A2040000C8
:1000A000A2040000A2040000A2040000A2040000B8
:1000B000A2040000A2040000A2040000A2040000A8
:1000C000A2040000A2040000A2040000A204000098
:1000D000A2040000A2040000A2040000A204000088
:1000E000A2040000A2040000A2040000A204000078
:1000F000A2040000A2040000A2040000A204000068
:10010000A2040000A2040000A2040000A204000057
:10011000A2040000A2040000A2040000A204000047
:10012000A2040000A2040000A2040000A204000037
:10013000A2040000A2040000A2040000A204000027
:10014000A2040000A2040000A2040000FFFFFF00C0
:10015000FFFFFF00FFFFFF00FFFFFF00FFFFFF00AB
:10016000FFFFFF00FFFFFF00FFFFFF00FFFFFF009B
:10017000FFFFFF00FFFFFF00FFFFFF00FFFFFF008B
:10018000FFFFFF00FFFFFF00FFFFFF00FFFFFF007B
:10019000FFFFFF00FFFFFF00FFFFFF00FFFFFF006B
:1001A000FFFFFF00FFFFFF00FFFFFF00FFFFFF005B
:1001B000FFFFFF00FFFFFF00FFFFFF00FFFFFF004B
:1001C000FFFFFF00FFFFFF00FFFFFF00FFFFFF003B
:1001D000FFFFFF00FFFFFF00FFFFFF00FFFFFF002B
:1001E000FFFFFF00FFFFFF00FFFFFF00FFFFFF001B
:1001F000FFFFFF00FFFFFF00FFFFFF00FFFFFF000B
:10020000FFFFFF00FFFFFF00A2040000A2040000A8
:10021000A2040000A2040000A2040000A204000046
:10022000A2040000A2040000A2040000A204000036
:10023000A2040000A2040000A2040000A204000026
:10024000A2040000A2040000A2040000A204000016
:10025000A20400006004000082040000A204000068
:10026000A2040000A2040000A2040000A2040000F6
:10027000A2040000A2040000A2040000A2040000E6
:10028000A2040000A2040000A2040000A2040000D6
:10029000A2040000A2040000A2040000A2040000C6
:1002A000A2040000A2040000A2040000A2040000B6
:1002B000A2040000A2040000A2040000A2040000A6
:1002C000A2040000A2040000A2040000A204000096
:1002D000A2040000A2040000A2040000A204000086
:1002E000A2040000A2040000A2040000A204000076
:1002F000A2040000A2040000A2040000A204000066
:10030000A2040000A2040000A2040000A204000055
:10031000A2040000A2040000A2040000A204000045
:10032000A2040000A2040000A2040000A204000035
:10033000A2040000A2040000A2040000A204000025
:10034000A2040000A2040000A2040000FFFFFF00BE
:10035000FFFFFF00FFFFFF00FFFFFF00FFFFFF00A9
:10036000FFFFFF00FFFFFF00FFFFFF00FFFFFF0099
:10037000FFFFFF00FFFFFF00FFFFFF00FFFFFF0089
:10038000FFFFFF00FFFFFF00FFFFFF00FFFFFF0079
:10039000FFFFFF00FFFFFF00FFFFFF00FFFFFF0069
:1003A000FFFFFF00FFFFFF00FFFFFF00FFFFFF0059
:1003B000FFFFFF00FFFFFF00FFFFFF00FFFFFF0049
:1003C000FFFFFF00FFFFFF00FFFFFF00FFFFFF0039
:1003D000FFFFFF00FFFFFF00FFFFFF00FFFFFF0029
:1003E000FFFFFF00FFFFFF00FFFFFF00FFFFFF0019
:1003F000FFFFFF00FFFFFF00FFFFFF00FFFFFF0009
:100400008FE72100AE7E22000E0188000000000070
:10041000000020000000E000020032000001200087
:100420002002880014000700480107000000E000D7
:1004300003003A0020F227000100200002003700EC
:100440000000200001002000810F70000100320038
:1004500014000700000020000000E000020032004D
:1004600000000200000000004E89020000000000B1
:100470000040DA000000FE004440A900603B20007C
:100480000000E0000300320000002000A00188000E
:100490004440A800000006008A1F78008B1F7800E7
:1004A0000000060091018800800478000000EB0045
:1004B0001A003700E284440032A0B4009905BA0063
:1004C000E284440032A0B4009906BA00E2844400F9
:1004D00032A0B4000006EB00476FDE00FD07B2005B
:1004E000636CE10003003A00EBFF07000000EB0043
:1004F0000A003700606CE10004003A00005DEB0088
:100500008B05E900FDFF3E00040037006168E10053
:10051000010032000086EB000B00070019C7BA008B
:100520001905BA000E04E00003003A000A00E000DA
:10053000E0FF3A0000000600FE07B2009E018800BE
:100540008A047800F5FF3700395DBA008B05E900B1
:100550000C003200295DBA008B05E900080032006A
:100560000C00E00003003A00E284440032A0B40032
:10057000F5FF370019DDBA008B05E900FAFF3A00F4
:100580008904E800E184440032A0B40000000600C1
:10059000000000000000000000000000000000005B
:1005A000000000000000000000000000000000004B
:1005B000000000000000000000000000000000003B
:1005C000000000000000000000000000000000002B
:1008C000809FBE00821F78003211800080F180007E
:1008D00061F180008270780080F180000000E80003
:1008E00080F1880071F18000810F500001003A0012
:1008F0009560A9008560A9004F0178004F00BE00F7
:1009000000400600809FBE00A0F180000000E800CB
:10091000A0F18800B1F18000810F500002003A0080
:100920009580A9000400370091F1800061407800B3
:100930000080FB00201188008580A9004F00BE00C8
:10094000004006000040DA000000FE000000050044
:1009500014002000B9043700F4FF2F00B70437005B
:100960000003BE00940007006011B8000470A700E7
:1009700007F0A10007F8A30017003A006509B100CD
:100980000D0032000D003500860220000628E1002F
:1009900003003500030028006000B80002000500D5
:1009A0000000400081804800020149008381490025
:1009B0008502E900FAFF3A0000000600F88F4200C5
:1009C000050034008100D1000080D3008502E800DA
:1009D000FCFF3A00000006006011B8008000EB0048
:1009E000000005000001BE00730007000470A700AE
:1009F00003F0A10003F8A30013003A006509B10059
:100A000010003200090035006928E10002003500BD
:100A1000010028000000050000004000818048001F
:100A20008502E900FCFF3A0000000600F88F420052
:100A3000050035008100D1000080D3008502E80068
:100A4000FCFF3A00000006008000EB0000000500FB
:100A50004F89DE008201780093043700889FBE0032
:100A60008A9FBE000082700004027100048271003F
:100A7000260032000004BE000200BE006011B80073
:100A80006B092000950220000182CF000A00390086
:100A90000541B1000082CF00070039000541B100D7
:100AA0000982CF00040039000541B1000882CF005F
:100AB000010039000541B100054252001200320028
:100AC0000A003B0082817100610164008100D10055
:100AD0000080D3008984D3000884D3008B05E8000C
:100AE0000442E800F7FF3A0007003700080444001A
:100AF00089844C0000004800818048008B05E90093
:100B00000442E900F9FF3A00050007004F05BE0066
:100B10004F04BE00000006006011B800CFFF370090
:100B200081002000618055000B003D000B0020007B
:100B300061FE2F000100E1001D0034008281710080
:100B4000610164008904D1000884D3000000E8003A
:100B5000FAFF3A0071002000610064000300700099
:100B6000020060000900320061044400E0844C008F
:100B70000988A500050032008B05E8006808E1003F
:100B800002003A008904D1000884D300F20F20004B
:100B90000258E10005003D00C75DDD00F907B20025
:100BA0008980750008007800000006000BF8270017
:100BB0008B00780000000500C70ADE00F107B200D4
:100BC000F50FB20008003200E1CF4200020032000F
:100BD0000170A00024000500810F700001003200A8
:100BE0000408050044000500810F700002003A006F
:100BF000140005008502E9000000400081C04800A3
:100C0000FCFF3B000170A000240005006022B8003A
:100C1000060220000000D0008180D2000482D200B1
:100C20008582D2000000A0000202520083825A0096
:100C3000030031000202420083824A000000A1004A
:100C40000603E900F3FF3A0000000600EFFF07008B
:100C50000400BE000000060007F8270007836100BB
:100C60000638E10004003A00F7072000878361009E
:100C70008703710001003A0003F0A200889FBE00C4
:100C80008A9FBE008C9FBE00470ADE000480A10040
:100C9000C71ADE000580A100070028000785600054
:100CA00087856100F70F20000720E1009E003200D9
:100CB0000728E1009C003200010678000400E000F3
:100CC000B4003200F7072000878060000170A000A8
:100CD0000500E000C0003200F707200087816100B6
:100CE0000370A000050652000F003A000B50E1000F
:100CF0000B0032000308E10002003A000200E100AC
:100D00007E00320002045000838458000400310049
:100D10000001FD008101FD008402FD008A05FD0047
:100D20006044B800210037000520E10005003D00C7
:100D30000001FD008101FD008402FD008A05FD0027
:100D4000050652007A60E100050035000170A1003F
:100D50004722DD00848070008A80700063003700C5
:100D60006044B800EF02660007FF2F000706660028
:100D70000500E00006003400F08312008714DD0057
:100D80000511DE00071BDD00060171008519DE007C
:100D90007060E100050035000904780082047800E5
:100DA000030178008001EB00700656000B50E10053
:100DB00003003A000200400083804800040037002E
:100DC00060041400E0841C00020058008380580076
:100DD0000188A300060032008100D1000080D3000A
:100DE0008984D3000884D3000402E8002700370078
:100DF0000178A30025003A000100E0000300320062
:100E00008186CF00698656000A0037008C002000DA
:100E10000000E00004003A0009007800880478002F
:100E20000004EB00700252008086CF000D064600E1
:100E30000C06E9007060E1000600350080007800D3
:100E400009007800880478000004EB007006560062
:100E5000700252000C00E0000C0034008C08DD0031
:100E6000F00316000703DE00868070000C00DD0032
:100E7000074BDE00060070008C4CDD000743DE00EF
:100E8000868474000C44DD000C0252006120E100F5
:100E900020003500610160000700280087816400A0
:100EA000F7FF270087836400070374000300E00056
:100EB0000600320082037300040032000000E800E4
:100EC000E08048000188A3000E003A00F70F2000E0
:100ED0000720E1004A003D000170A1004722DD002B
:100EE000810072008A8070000000BE004F06BE00C4
:100EF0004F05BE004F04BE00000006006000B800B1
:100F0000FAFF37008100D1000080D3000402E8001E
:100F1000EEFF37000401780089017400A101070089
:100F20008A807000F1FF3700F701070007027800A0
:100F30000001FD008101FD00F30107008702780038
:100F4000850372000778A300040032000001FD0051
:100F50008101FD0006020700E4FF370085036200FF
:100F60000768A300080032000B50E10003003200C4
:100F7000F0FF2F00F1FF2700DCFF37000001FD002C
:100F80008101FD00D9FF37000468A300D7FF3200BC
:100F9000FAFF3700F8FF2700888360000B003A0053
:100FA0000000E00009003A008303640082837300BC
:100FB000020032000200BE00CCFF37000B50E100FF
:100FC000CEFF3A000200BE00C8FF37001400200028
:100FD000810064003EFF3700F8FF2700888361002E
:100FE00004003A000200E00002003A008C007800A1
:100FF000BEFF3700150020008301640039FF370071
:1010000001F827000000200081007500B7FF3700BD
:10101000889FBE008A9FBE008C9FBE001B002000E0
:101020000202BE000586680006002800060666006B
:101030004709DE00F20FB200820032000243E800EE
:1010400080003200C729DE00F30FB2007D003200BD
:101050000343E8007B003200F107B2000170A000FA
:10106000F507B2000570A000C708DD004903DE00E7
:10107000868070004700DD00C72ADD004923DE00BE
:10108000868272004722DD000305510004035000F0
:101090008583580003003100000040008180480033
:1010A0000A05E9008C1F78008A9FBE0004005000EA
:1010B000858058000402420085824A0000004000FA
:1010C000818048000005EB000004BE006033B800DA
:1010D0000406BE000D48E100560031001100090071
:1010E0004DCCD8000C01B8000D02B800848141003D
:1010F00060824A008283530003045C0084845C00A5
:1011000060055D000A00E00025003A0080057800D7
:101110000D40E100490031008800780007007800A8
:10112000110009004D88D8000C01B8000D02B8006C
:101130008481410060824A006003110083835B0068
:1011400004045C00E0845C000900E00021003A0037
:101150004F01BE000300E0002B003200E3016000FD
:10116000070673008C81710001003200640070007A
:101170004200DE004E5EDD000C007000C258DE0052
:1011800001E0A00083010700CF0178008180710099
:101190004F06BE004F05BE004F04BE000000060013
:1011A0008C8343000D044C00E0844C0060054D002E
:1011B0000000E9000A00E000D4FF32008C83430005
:1011C0000D044C00E0844C0060054D000000E90077
:1011D000CEFF37000C0343008D834B0060044C00AE
:1011E000E0844C000000E9000900E000D8FF320074
:1011F0000C0343008D834B0060044C00E0844C00E2
:101200000000E900D2FF37004200DE004E5EDD0044
:101210000C007000C258DE0001E0A000CF01780091
:101220000300E000DAFF320060001000E0801800E8
:10123000D7FF3700F0FF2F00AAFF3700F0FF2F0085
:10124000B9FF37000404BE002F01070087067800AD
:101250000004FD008104FD002B01070007836600E8
:101260000678A300030032000960A7000800BE0052
:101270002C0037000D78A300020032000800BE00E9
:10128000280037000778A30026003A0001F0A100EB
:1012900009F0A1000668A30003003200F1FF270057
:1012A000F0FF2F00BAFF37000D68A30003003200E3
:1012B0000800BE008C807000B5FF37000768A300EF
:1012C00007003A000648A30003003200F1FF2700A0
:1012D000F0FF2F00AEFF37000D48A30003003200DF
:1012E0006000B8008C807000A9FF37000748A30099
:1012F0000400320001F82700000020008C807000FC
:10130000A3FF3700760107000004FD008104FD0003
:1013100002057800720107000802BE008A01780009
:1013200059FF37000160A00012022000024088002F
:1013300097FF37000100E000120032000500E000D6
:1013400010003200889FBE008A9FBE008C9FBE00A6
:101350000006EB0001F8A30003003200600010005B
:10136000E08018000CF0A00005F8A3000300320094
:1013700060021200E0821A000CF0A2008005EB006F
:1013800041FF37006000B8000200050003836800D9
:101390000700280007036300470ADE000480A1005D
:1013A000C71ADE000580A100F70F20000720E1002A
:1013B000420032000728E10040003200889FBE0052
:1013C0008A9FBE008C1F7800F107B200F307B200BD
:1013D0000400E000640032000170A0000500E0009D
:1013E000680032000370A00085054200EB07B100E1
:1013F0000204B8000302B8008484440060854A00F7
:10140000020AB800848444000A854A00030AB8002E
:1014100004054500040033000804D0008984D2008C
:101420000A85D2008B05E9006158E1003D003500D6
:101430000210200009016100030820008981610079
:10144000F70720008783640008867300C84CDE001D
:10145000C853DD00878474004855DE000300E000B7
:101460000600320082037600040032008904E8009E
:1014700060054D000A88A3000C003A00F70F200019
:101480000758E10044003D000A70A100C75DDD007F
:101490000A8575008A007300090078004F067800FD
:1014A0004F05BE004F04BE00000006000A05D10033
:1014B0008984D3008B05E800F0FF3700881F78008F
:1014C0000604780090000700070278000001FD0084
:1014D0008101FD008C0007008702780085037200FF
:1014E0000778A300050032000001FD008101FD0026
:1014F0009F0007004F04780000000600850372007B
:101500000748A30003003200F0FF2F00F1FF27007F
:10151000F8FF37000000200001F8270088807000E5
:10152000F4FF3700880178004848DD0080817100B1
:101530004848DE00C850DD0001007000C850DE00E1
:10154000060478000B017800160007008880700000
:10155000D2FF37000500E000050032001700200030
:101560003A0007009DFF370081037000F9FF3A0041
:10157000860078004F0678004F05BE004F04BE007D
:101580000000050083037100F9FF320027002000EE
:101590002E00070094FF370001F8270086807000B6
:1015A000F4FF37000100E000260032006101110065
:1015B0007810E10023003C006022B8007010E100C8
:1015C0000400350080027800010078008000EB0004
:1015D000700151000200E0000900340070031100A6
:1015E000062ADD00822ADE008603DD008782720083
:1015F0000200DE00860BDD00070070008208DE00BE
:1016000084817100F4FF27000482620084817100EC
:1016100004002800848262006102600005F0A600D8
:101620000000060004827100070032000000E8009C
:10163000E0804800000006000002BE006000B80024
:10164000EFFF37006000B80000000600889FBE0072
:101650000004EB006138E10016003A000100E000F0
:1016600008003A00C800DE004800DD0088002000C5
:101670000100E00003003A00C800DE004800DD0081
:10168000680444008184CF00E984540006003400DB
:101690008908DD00F08314008703DE008780700076
:1016A0000900DD0009044400610214004F04BE007B
:1016B000000006000300E00008003A00C811DE0048
:1016C0004811DD00880020000300E00003003A001C
:1016D000C811DE004811DD00680444008384CF0097
:1016E000E9845400060034008919DD00F0831400F9
:1016F0008713DE00878171000911DD0009044400B1
:10170000E1021400E9FF37002700200001F0A700E4
:1017100017002000470BDE00F60FB2000400320075
:101720000643E8000A0032004702B300000006004A
:1017300001037800F607B2000603700002003A00C9
:101740000703B300000006008702B3000000060094
:1017500001037800F607B2000603700002003200B1
:101760000770A000000006000760A000000006004F
:101770000478A300040032000578A30003003200BF
:101780000168A30001003A000200BE000160A00051
:101790000000060081017000270032008002EB008B
:1017A00001F8A3000300320060001000E080180080
:1017B00015002000F407200002024200200034003F
:1017C000F703200087036000060420000003630085
:1017D00002082000000161004700DE00C909DD00A9
:1017E00000807100C708DE000600E000080032003B
:1017F00087037100060032001000B0000180B000C5
:101800000188A30002003200C108DE000402E800E3
:10181000F107B200F30F20000320E10003003D00B8
:101820004722DD00810072002900370001F82700FF
:101830000000EB00260037006000B8000000060042
:10184000680212007F20E100020034006000B8004E
:101850001F0037006011B8007020E100040035005F
:1018600080017800010078008000EB0070025200D7
:101870000400E00009003400F00312000719DD0045
:101880008419DE000703DD00868171000400DE009C
:10189000070BDD00060070008408DE00F7FF27005C
:1018A000838363008703710006002800030363003D
:1018B000070032000700E00003003A006101600009
:1018C00002817300020032001000B0000180B000FD
:1018D0000500A6000000060001F0A00000000600C0
:1018E0004F0ADE004709DE00F107B200F20FB20036
:1018F0000B003200F207B1000170A000C708DD0044
:10190000C901DE00838070004700DD000400A600EE
:101910000000060060001000E080180000000600D3
:10192000810F700001003A00000006008182CF00A4
:101930000500E00010003E008082CF00EE824200F1
:101940007028E1000400390007003E0080007800A4
:101950000000EB000E003700708312008600DE00EE
:101960000500DD000A003700708352008600DD00AC
:101970000000EB0006003700E28252008508DD001F
:10198000708312000603DE00868070000500DD0013
:101990007507B0000501EA000400A600000006007B
:1019A00060001000E080180000000600889FBE0064
:1019B0008A9FBE0030044200B0844A0030054B00CC
:1019C00090854B006000B1000898BE000A90BE00F0
:1019D0000440E10005C8E10006D0E10007D8E100BD
:1019E00002003100680040001008E8004F05BE000A
:1019F0004F04BE0000000600889FBE008A9FBE0004
:101A00003004BE002005BE000418540005985C0098
:101A100006185D0007985D00110020000440E100F9
:101A200005C8E10006D0E10007D8E1000100390057
:101A30008000EB00108810004F05BE004F04BE0070
:101A4000000006001200FA00889FBE008A9FBE00B8
:101A50008C9FBE00E0B79F00F1B79F0082BF9F0040
:101A600093BF9F000605BE000404BE000000EB000B
:101A7000D0B79F00C0B79F00B0B79F00A0B79F002E
:101A800090B79F00000678005FB19700CFB0970035
:101A9000820141003FB097000200E00004003D00D9
:101AA000370007007E805700C0FF070003003700A3
:101AB000330007007E805700CFFF0700DFB6970096
:101AC0000D00E0000C0035006FB29700FFB29700E8
:101AD0000FBB97009FBB9700100020000100200063
:101AE0006011B8000002720081827200020373006C
:101AF000838373001B0007000C06E800010420002C
:101B0000810F5600E0FF3A000D00E00004003D00A8
:101B10000802BE000A03BE007E805700A3FF070034
:101B20005FA897000000E00005003A001FB2970090
:101B3000AFB297003FB39700CFB3970009000700FB
:101B40006FB09700FFB097000FB997009FB997004B
:101B50004F06BE004F05BE004F04BE000080FA00D5
:101B6000000006000100070000000600A4B79F0067
:101B7000B5B79F00C6B79F00D7B79F00000006000B
:101B80004F09DE0082817100B3B79F004F01DE0074
:101B90008180400082807000A1B79F008FB09700C5
:101BA0004F09DE00000040000200700090B79F0067
:101BB0007FA897004F01DE00818040008280700086
:101BC00081B79F000D0007004F3ADE000000400083
:101BD00004007000F0AF9F000800070004024200FC
:101BE00085824A0006034B0087834B00DFFF070016
:101BF0000802BE000A03BE00000006002FB29700D4
:101C0000BFB297004FB39700DFB397000000060004
:101C1000881F780018002000881F780089FF0700BF
:101C20008F87E9004F04780000000600801FEB005A
:101C300084FF07008F87E90000000600889FBE0030
:101C40008A9FBE00841F7800270007004F0078009D
:101C500011003300F0FF2F00838F6C0006003B0063
:101C6000040565000A00A7000800370009F0A60077
:101C70001000200008003700820F5400838F5C00A2
:101C8000030039001000200001003E000000200089
:101C900009F0A7000000EA004F05BE004F04BE0097
:101CA0000000E00000000600881F780003047800B0
:101CB0000300E00007003D0060001000E080180015
:101CC00060011900E081190002003B0001F02D00C5
:101CD0000300370061FB070008F0A70001F0A00037
:101CE0004F047800000006000004BE00B2FB0700AD
:101CF0000003BE000405BE000200BE00AEFB0700EC
:101D0000844F750000000600800178000200370053
:101D1000B15978000201E9000200E000FCFF3A003E
:101D200000000600889FBE008A9FBE0080047800E5
:101D30000200E0005B00320001407800814C780036
:101D400082814400F1F99F00E20F510055003600F6
:101D500091449800A1449800E1F99F00D1F99F00B7
:101D6000E60F51004F003600B1449800C1F99F00C2
:101D7000E80F51004B0036000905EA0063056500D5
:101D80000A8444000A055100C1FF2F0001056500C7
:101D90000080FB008000EB001210200013102000D8
:101DA00044000700008CBE000A01440060B99F0097
:101DB00071B99F00E80F55003A00360020049800E2
:101DC00031049800400498005104980020B99F0005
:101DD00031B99F0040B99F0051B99F00F80F5500DD
:101DE000300036006004980071049800000C9800E0
:101DF000110C9800200C9800310C9800400C9800B1
:101E0000510C980020B19F0031B19F0040B19F005C
:101E100051B19F0060B19F0071B19F0000B99F0058
:101E200011B99F006401640078014100020444007C
:101E3000020555006011B8000203BE000002BE009A
:101E40000403BE006022B8000000720081807200AE
:101E5000020173008381730010003700009CBE00F4
:101E60000294BE0040049800510498006204980057
:101E700073049800000C9800110C9800220C980034
:101E8000330C9800400C9800510C9800620C98009C
:101E9000730C98000A02B1000802B000FF0F550051
:101EA000EEFF3E00090078004F05BE004F04BE0063
:101EB00000000600020AB900001BB9000200B800C9
:101EC0008100420081004300000006000052000033
:101ED00045540000555200004E00000052550000CD
:101EE0004E0000004C490000535400000045000023
:101EF00058490000540000004E4500005700000003
:101F00004C45000054000000494600000054000009
:101F1000484500004E000000454C000053450000BD
:101F2000004700004F5400004F000000474F0000E2
:101F30005355000042000000524500005455000077
:101F4000524E000000520000454D000000500000BD
:101F5000524900004E540000004900004E5000005D
:101F600055540000004600004F520000005400008D
:101F70004F0000004E450000585400000052000081
:101F8000454100004400000044410000544100006D
:101F90000053000054410000525400005200000061
:101FA00053540000415200005400000053540000FC
:101FB0004F50000052000000535400004F500000EA
:101FC00000530000454E0000440000005245000050
:101FD000434500004956000045000000434C000006
:101FE0004B00000044410000540000004249000042
:101FF00054520000454100004400000041440000EC
:10200000430000004155000058500000494E0000B8
:10201000005000005355000000500000554C0000D7
:102020004C55000050000000444500004C410000A9
:1020300059000000415500005800000046520000C1
:1020400045510000004400005554000059000000B4
:102050004D410000435200004F000000454E00007B
:1020600044000000808F0000848F0000878F0000F4
:102070008C8F0000918F0000968F00009C8F0000D5
:10208000A38F0000A78F0000AD8F0000B38F00006A
:10209000B78F0000BA8F0000BF8F0000C48F000010
:1020A000C98F0000D08F0000D68F0000DC8F0000A9
:1020B000E18F0000E68F0000EE8F0000F28F00003D
:1020C000F68F0000FE8F00000290000009900000D3
:1020D0000D900000149000001A9000001E90000067
:1020E00023900000289000002E90000000000000C7
:1020F000002E0000003A000020000000005E0000FA
:10210000BCE20000613F0000DD830000C29C0000D3
:102110007E200000A3FD00001F4100009DC30000C1
:10212000217F0000FCA20000401E00005F010000B3
:10213000E3BD00003E60000082DC0000237D000063
:102140009FC10000421C0000FEA00000E1BF000093
:102150005D03000080DE00003C620000BEE0000085
:10216000025C0000DF810000633D00007C22000073
:10217000C09E00001D430000A1FF000046180000A3
:10218000FAA40000277900009BC5000084DA000053
:1021900038660000E5BB000059070000DB85000041
:1021A00067390000BAE40000065800001947000033
:1021B000A5FB000078260000C49A0000653B0000E3
:1021C000D9870000045A0000B8E60000A7F9000013
:1021D0001B450000C69800007A240000F8A6000005
:1021E000441A000099C70000257B00003A640000F3
:1021F00086D800005B050000E7B900008CD2000023
:10220000306E0000EDB30000510F00004E100000D2
:10221000F2AC00002F71000093CD0000114F0000C0
:10222000ADF30000702E0000CC920000D38D0000B2
:102230006F310000B2EC00000E500000AFF1000062
:10224000134D0000CE900000722C00006D33000092
:10225000D18F00000C520000B0EE0000326C000084
:102260008ED00000530D0000EFB10000F0AE000072
:102270004C12000091CF00002D730000CA940000A2
:1022800076280000ABF50000174900000856000052
:10229000B4EA000069370000D58B00005709000040
:1022A000EBB50000366800008AD4000095CB000032
:1022B00029770000F4AA000048160000E9B70000E2
:1022C000550B000088D60000346A00002B75000012
:1022D00097C900004A140000F6A80000742A000004
:1022E000C8960000154B0000A9F70000B6E80000F2
:1022F0000A540000D78900006B350000490900002E
:10230000004F00000900000048090000004C0000D8
:10231000090000003E000000001B00005B00000000
:1023200044000000430000000D0A000028000000E7
:1023300078000000293E0000002E00002000000070
:1023400042750000732000005069000072610000B7
:10235000746500002076000033000000436F000029
:102360006D6D0000756E000069740000792000003A
:1023700046690000726D0000776100007265000020
:1023800020760000372E0000312000002D200000B4
:10239000627500007A7A00007069000072610000C6
:1023A000742E0000636F00006D2000006279000051
:1023B00020440000726500006720000053450000C3
:1023C000564500004E200000414C000050480000DF
:1023D0004120000000290000002E0000203C0000E9
:1023E00000000000000000000100000000000000EC
:1023F00002000000000000000400000000000000D7
:1024000008000000000000001000000000000000B4
:10241000200000000000000040000000000000005C
:1024200080000000000000008000000000000000AC
:102430000001000000000000000200000000000099
:102440000004000000000000000800000000000080
:10245000001000000000000000200000000000004C
:1024600000400000000000000080000000000000AC
:102470000000000001000000000000000200000059
:102480000000000004000000000000000800000040
:1024900000000000100000000000000014340000E4
:1024A000040D00008206000040030000A0010000AF
:1024B000CF00000067000000440000002200000080
:1024C0007F00000000000000000000002C01000060
:1024D000000000005802000000000000B0040000EE
:1024E000000000006009000000000000C0120000B1
:1024F00000000000802500000000000040380000BF
:1025000000000000004B0000000000008070000090
:10251000000000000096000000000000C0DA00008B
:102520000000000000E100000000000000C2000008
:102530000100000000F400000100000000E80000BD
:102540000300000030300000302C0000003000009C
:102550003000000008080000080800000800000023
:102560000030000031320000333400003536000006
:102570003738000039410000424300004445000064
:1025800046000000314100004C53000001420000B1
:102590005076000033000000210000000010000011
:1025A00000230000000F0000424000004005000032
:1025B000410200000000000000000000006900006F
:1025C000D05D00006DDB00005D6B0000CB5D0000A6
:1025D00069D000005D00000000000000181C000031
:1025E0001D0C0000161A00000B0F00001E17000043
:1025F0001B0000001450000001080000010300004F
:102600000000000000200000290000009D250000BF
:102610000D000000003500003F6200006100000076
:102620002900000000000000000000000000000081
:102630000000000000000000E0EB80000000E80067
:102640000080FB00A1C72100E140780080C7B300F3
:1026500080CF50001000320040C6B30080CF500041
:102660000900320020C6B30080CF500008003200BD
:102670000040EB0072C7B30082CF500008003A0060
:102680003000200005003700100020000300370054
:1026900020002000010037000000EB000040E800AF
:1026A000000006004216800080006100101829001A
:1026B00001003200E0172900846B020000000000D6
:1026C000000006005216800080006100701829008A
:1026D0000100320040182900846B02000000000055
:1026E000000006008000780000C3B3000100E00095
:1026F0000100320010C3B300126A020000000000A3
:1027000000000600F0EB8000D1EB8000810F50004C
:1027100004003A0070C0B300126A0200000000001A
:10272000080037000000E800F20F2000E1D7210088
:102730008208600000C02900010020000C85020012
:10274000000000000000060040BF2900010020003A
:102750000C8502000000000010E421001081FB0045
:10276000000320000091B90021A9210001004100CF
:10277000846B02000000000020E4210010007800BB
:10278000640060000400320080AD290001002000D8
:102790000C85020000000000A0182900846B0200D4
:1027A0000000000000000600889FBE008A9FBE0057
:1027B00080057800E1EB8000D0EB8000808F500036
:1027C0000C003200A4C721008041EB00F20F200072
:1027D000037278000000E90002006000808F500062
:1027E000FBFF3A00D0EB88000041EB00A1C72100BD
:1027F000827078000B00E9000080FB00D2EB8000C3
:102800000004EB00820F500012003200A1C721002B
:10281000E14078000104E00007003A0003003700BF
:10282000E44078000104E00005003A000000E80000
:102830000084FB0007003700F30F2000A4C721002D
:102840000000E90003006000820F5000F4FF3A002E
:102850000004EB00BCFF07008B0F54000E00320099
:10286000A9C72100FA0F200069407C00126A02000B
:1028700000000000D0EB800068F07C000000E80061
:102880000A006000D0EB88000804E8000A04640035
:10289000888F5500F4FF3A00D0EB80000041EB0038
:1028A000A1C7210082707800F0EB88004F05BE00C0
:1028B0004F04BE0000000600889FBE008A9FBE0035
:1028C000E8EB80000804E9000884FB00D0EB8000FE
:1028D000800F5400170032000005EB00A9C721004B
:1028E0000BD8210069407C000004E0000C003A0095
:1028F0000800E9000080FB00694078000004E00067
:10290000070032000A05E8001B007800800F550020
:1029100003003600800DE80008007800A2FF0700E1
:102920000804E9000884FB00D0EB8000880F500009
:10293000ECFF3A0070C0B300126A02000000000011
:102940004F05BE004F04BE0000000600889FBE0079
:102950008A9FBE00E9EB80008904E9008984FB00BE
:10296000D0EB8000808F5400180032008000EB0014
:10297000AAC721000BD821006AC07C000004E00037
:102980000D003A000900E9000080FB006A40780071
:102990000004E000080032008100E8001B04E900A8
:1029A000810F540004003A00880D78000900780077
:1029B0007DFF0700880078008904E9008984FB0016
:1029C000D0EB8000890F5000EBFF3A0000EC800054
:1029D000E10F50000400320070C0B300126A020020
:1029E000000000001400370057FF0700D0EB800004
:1029F000E1EB8000810F500009003200A4C72100E4
:102A00008041EB00F20F2000037278000000E90023
:102A100002006000808F5000FBFF3A00D0EB88007E
:102A20000041EB00A1C7210082707800F0EB880024
:102A300000D821000008EB004F05BE004F04BE0087
:102A40000000060011C0B30030D821000148780012
:102A50008000EB0001EC8800D0EB8000A2C72100D1
:102A6000017178000000E8000080FB00D0EB8800D6
:102A7000F0EB8800C0182900666C0200000000001E
:102A80000000060010E42100104078000004E0007F
:102A900005003A00A04529000100200066850200DB
:102AA00000000000140037000080FB00010320003C
:102AB0000180B9002002B000A1A6210061007800C9
:102AC00000000100C074290001002000668502009A
:102AD00000000000C002A900C202A900A0752900E0
:102AE000010020000C85020000000000C018290031
:102AF000666C0200000000000000060010E42100E7
:102B00001004E00005003A00A04529000100200063
:102B1000668502000000000040003700C002A900E6
:102B2000C202A80021E3A800200020000E690200D4
:102B300000000000A0002000B468020000000000B7
:102B4000011B2000810F500026003600900020005D
:102B5000B468020000000000712B2000810F5000BB
:102B60002000360050002000B46802000000000081
:102B700031162000810F50001A003600400020005E
:102B8000B468020000000000F10F2000810F500027
:102B900014003600E0852900010020000C850200A9
:102BA00000000000C0182900666C02000000000050
:102BB00010E421009080FB00000320000088B90091
:102BC0000002B000A1A62100610078000000010011
:102BD000A08329000100200066850200000000009B
:102BE0000D003700C002A900C202A900004329005D
:102BF000010020006685020000000000A075290089
:102C0000010020000C85020000000000C01829000F
:102C1000666C02000000000021E3A900000006002D
:102C2000889FBE008A9FBE00F1EB8000D0EB800041
:102C30008004EB00808F50000F003200AAC72100F3
:102C40000BC2B3000104E8006A407C0000F5780084
:102C50000004E00001003A000B407800126A020014
:102C6000000000008904E8008880FB00D0EB8000B1
:102C7000810F5000F3FF3A000000E9000080FB00E4
:102C8000D0EB8800D0182900846B020000000000FF
:102C900009007800FC6A0200000000000019290009
:102CA000846B0200000000004F05BE004F04BE0010
:102CB00000000600F0EB8000E1EB8000810F500087
:102CC00004003A0070C0B300126A02000000000065
:102CD00018003700D1EB8000810F50000C003A0043
:102CE0000000E9000080FB00D0EB88000041EB0011
:102CF000A1C7210082707800F0EB880040C0290055
:102D0000010020000C8502000000000009003700CF
:102D100080BF2900010020000C8502000000000097
:102D2000E0D721001001E900F10F20000108610047
:102D3000BBFF070000000600F1EB8000E0EB800025
:102D4000808F500004003A0070C0B300126A020085
:102D50000000000001003700B1FF0700000006007E
:102D6000889FBE00F1EB8000E0EB8000808F500078
:102D700003003A0070C0B300126A020000000000B5
:102D8000E9D72100E8EB8000190414000884FB0057
:102D9000D0182900846B02000000000008007800B1
:102DA000FC6A02000000000000192900846B020088
:102DB00000000000E0EB8000800C78004F04BE00B3
:102DC00000000600889FBE00F1EB8000D0EB800081
:102DD000808F500003003A0070C0B300126A0200F6
:102DE00000000000E9D72100D8EB8000190454004E
:102DF0000884FB00D0182900846B0200000000004A
:102E000008007800FC6A0200000000002019290078
:102E1000846B020000000000D0EB8000800C780082
:102E20004F04BE0000000600889FBE008A9FBE00BF
:102E30008C9FBE008E1F780080467800DAEB800001
:102E40008A00E8008180FB00E0EB8000808F50006A
:102E50004B003200FFCF560049003600E0C7B300F8
:102E600080CF560046003E00F8EB8000880F5500EA
:102E70000D003A000D407800126A020000000000C8
:102E8000D0EB8000A1C721008D7078000000E80021
:102E90000080FB00D0EB88000041EB0082707800DE
:102EA000F0EB880039003700D0182900846B02004D
:102EB0000000000008005500FB0F20000B00600020
:102EC000FC6A02000000000020192900846B020047
:102ED00000000000DAEB8000E0D721001000E900DC
:102EE0008B0560008A8F550016003200ABC72100A9
:102EF000C8BF290009002000FC0F2000EED72100E8
:102F00000A804500EB407D00114098006B407D0039
:102F10000004E00005003200126A02000000000018
:102F20000800BE000C850200000000000A05E90050
:102F30000C0565001E00E9000C0060008A0F5000BF
:102F4000EFFF3A000D407800126A02000000000016
:102F5000E1D7210011007800A2C721000D7178008F
:102F60000001E800F00F200080086100D1EB800034
:102F70008100E80000806000D0EB8800030037008B
:102F800070C0B300126A0200000000004F07780012
:102F90004F06BE004F05BE004F04BE0000000600F5
:102FA00020D8210041C0B30090CF100005003600AA
:102FB0001E8702000000000020D821000048EB001E
:102FC00010003700F0EB8000E1EB8000810F500033
:102FD000090032000000E900F20F2000E1D72100D3
:102FE0008208600080BF2900010020000C850200DB
:102FF000000000000300370070C0B300126A020036
:1030000000000000000006000A6A02000000000044
:10301000B1C5B300814F500029003A000A6A02008E
:103020000000000011C4B300814F500013003200B3
:1030300007003E0011C3B300814F5000130032005F
:1030400041C3B300814F50001D003A001600370005
:1030500031C4B300814F500006003200090039002E
:1030600041C4B300814F500015003A00CCFF070067
:1030700013003700A3FD0700110037000EFE070004
:103080000F00370031FE07000D0037000A6A02000A
:1030900000000000E1C7B300814F500008003A0073
:1030A0002FFF0700060037000A6A02000000000038
:1030B000E1C7B300814F500001003A0041FF070013
:1030C00000000600889FBE00A0A429000100200087
:1030D0006685020000000000A0D828000100200042
:1030E0006685020000000000805A290001002000CF
:1030F0000C8502000000000010E421009080FB001D
:10310000000320000088B9004002B000A1A6210001
:10311000610078000000010020A5290001002000C6
:103120000C85020000000000004020005DFD07004B
:10313000001020005BFD07000020200059FD070063
:103140000004200057FD07000008200055FD07007F
:10315000C0182900666C020000000000C0BD2900F4
:10316000010020000C8502000000000021E3A800FF
:10317000A0002000B468020000000000126B0200F2
:103180000000000068C62900090020000800BE00F9
:103190000C8502000000000090C0B300126A02001B
:1031A0000000000090002000B46802000000000051
:1031B000126B0200000000000800BE000C85020037
:1031C0000000000090C0B300126A0200000000007E
:1031D000C0002000B468020000000000126B020072
:1031E000000000000800BE000C8502000000000086
:1031F00090C0B300126A020000000000B00020007E
:10320000B468020000000000126B02000000000021
:103210000800BE000C8502000000000090C0B30052
:10322000126A0200000000000040200025FD070097
:103230000010200023FD07000020200021FD0700D2
:10324000000420001FFD0700000820001DFD0700EE
:10325000C0182900666C020000000000C018290098
:10326000666C02000000000040712900010020008F
:103270006685020000000000C094290001002000C3
:103280000C85020000000000C0182900666C0200D6
:103290000000000080BD2900010020000C85020014
:1032A0000000000010182900C042AB0001003200ED
:1032B000E0172900846B020000000000C0182900FC
:1032C000666C02000000000050002000B46802009C
:1032D00000000000126B02000000000068C6290018
:1032E000090020000800BE000C850200000000005C
:1032F00090C0B300126A02000000000040002000ED
:10330000B468020000000000126B02000000000020
:103310000800BE000C8502000000000090C0B30051
:10332000126A02000000000070182900C242AB00BF
:103330000100320040182900846B020000000000E8
:10334000C0182900666C02000000000021E3A900FB
:103350004F04BE000000060040B929000100200013
:103360000C85020000000000C1BF2A000000EB0035
:10337000EC68020000000000286A02000000000063
:1033800020B02900010020000C8502000000000090
:10339000E1BF2A000000EB00EC6802000000000022
:1033A000286A020000000000C0182900666C0200B4
:1033B0000000000040922900010020006685020004
:1033C000000000003FFF0700C202AB000500320012
:1033D000E0852900010020000C85020000000000AB
:1033E00004003700A0752900010020000C850200B0
:1033F00000000000C0C2B300126A0200000000001A
:1034000000C2B300126A020000000000CB62AB00F1
:1034100005003200E06C2900010020000C8502004C
:103420000000000004003700E060290001002000D7
:103430000C85020000000000C0C2B300126A020046
:103440000000000000C2B300126A02000000000089
:1034500060E42100104078007040600005003200F8
:1034600000262900010020006685020000000000FF
:1034700004003700C03A29000100200066850200E0
:103480000000000060E42100104078006840600007
:1034900005003A00E0462900010020000C850200EA
:1034A000000000000400370020482900010020002F
:1034B0000C85020000000000C0C2B300126A0200C6
:1034C0000000000000C2B300126A02000000000009
:1034D000E04B2900010020000C85020000000000E4
:1034E00050E4210010407800EE6A02000000000065
:1034F000C0182900666C02000000000060E4210092
:103500001040780063406000E14F500005003A0031
:10351000E05F290001002000668502000000000035
:1035200004003700E05E29000100200066850200EB
:103530000000000010E421009080FB000003200048
:103540000088B9006002B000A1A6210061007800E7
:103550000000010040922900010020006685020061
:103560000000000000000600889FBE008A1F78004F
:10357000E3EB80000380FB00A1C7210061407800DD
:10358000F1CCB30081404000E8CF50001A003E006B
:103590000080FB000003B1008300E8008180FB0095
:1035A000A2C7210062C1780004CDB30004424100EB
:1035B00011002000E94F520076003E00F80F200075
:1035C000A7C7210006CDB3006A02B9000280FB0044
:1035D000040040000003B1008100E80003814000C6
:1035E000080161006741790006424100E94F52003D
:1035F000F5FF36006700370001C3B300814F50006C
:1036000060003A000300E8000080FB00A1C7210031
:103610006141780020C6B300804F51000B003A0092
:103620000380E8000080FB00A1C721006141780011
:1036300004CDB300044241000000EB002100200053
:10364000E14F5200050036005200370020C4B3009D
:10365000804F510010003A00F1FF3700F70F2000B3
:10366000A6C7210005CDB300000040000281FB0089
:10367000020040000003B1008100E8000381400027
:10368000070161006641790005424100E14F5200A7
:10369000F5FF36003F00370080C7B300804F510070
:1036A0000A00320080C5B300804F51001E003A006E
:1036B000090037004400DD000003B1000281FB0077
:1036C000020040008100E8000A0037000000EB0023
:1036D00021002000020037000000EB002100200044
:1036E000F80F2000A6C7210007CDB300F9CBB30027
:1036F000FAC9B300038240000802620066417A0002
:1037000087424100E9CF5200EAFF3600894241007A
:10371000E5CF5200260036008A424100E5CF520034
:10372000230036001B00370004CDB30004424100E3
:103730000000EB0011002000E94F520015003E0090
:103740000280FB000003B100F80F2000A7C7210092
:1037500006CDB3006A02B9000280FB0004004000FD
:103760000003B1008100E80003814000080161000E
:103770006741790006424100E94F5200F5FF3600EB
:103780000400370060E421001074A0000000EB008A
:1037900004003700E2EB8000828040008180FB0063
:1037A000E1EB88004F0578004F04BE0000000600E2
:1037B0000254A00002737A004400DD007005B100DD
:1037C0000281FB0002004000BEFF3700881F780026
:1037D000E1EB80000100E8000080FB00A2C72100AF
:1037E000E241780010002000A2C3B30082CF510054
:1037F00009003A008180E800F80F2000888060000E
:10380000E1EB880058FF0700E1EB80008100E90050
:1038100008846000E8EB88004F0478000000060090
:10382000881F7800E1EB80000100E8000080FB00C9
:10383000A2C72100E24178000000EB00B2C3B30050
:1038400082CF510009003A008180E800F80F200083
:1038500088806000E1EB880043FF0700E1EB800017
:103860008100E90008846000E8EB88004F047800DC
:1038700000000600E0EB8000A1C721006141780054
:1038800001C2B300814F510009003A00F40F20003B
:10389000A3C72100014178000000E8000400600097
:1038A000E340780082CF5000FBFF3200E0EB88005D
:1038B00000000600889FBE008A1F78000044780040
:1038C000E0EB80000000E8000080FB00E0EB8800F7
:1038D000E8FF070024FF0700000578000804E00067
:1038E0000600320050E42100904078000A00780081
:1038F000C268020000000000000578000A4078005D
:10390000566A02000000000088BE2900090020005D
:103910000800BE000C850200000000000A4078008C
:10392000EE6A0200000000000800BE000C850200E4
:10393000000000000A407800506B02000000000008
:10394000C0182900666C0200000000004F057800D6
:103950004F04BE00000006001000FA00889FBE0061
:103960008A9FBE008C9FBE00500798006107980098
:10397000720798004307980048C0290009002000FA
:103980006A4929000B00200040192900846B0200BD
:10399000000000005E0090000000E00004003D0018
:1039A00080192900846B020000000000030037002A
:1039B0002E489000EE6A020000000000A0192900C5
:1039C000846B0200000000008000EB0031079800CB
:1039D000810678000A6A02000000000000467800B4
:1039E000ED4F56004600320005003E00E84F5600FD
:1039F0000A003200EA4F56002C003A00400037001F
:103A0000D0C2B300804F56001800320080C7B30008
:103A1000804F560025003A00200037000D00E000DE
:103A2000050032008D06E9000800BE000C8502008A
:103A300000000000E7FF37003E0090000000E000BB
:103A4000060032000800BE000C85020000000000E5
:103A50008000EB0031079800DEFF370070C0B30034
:103A6000126A020000000000DAFF37000D00E000DB
:103A700006003A00D0C2B300126A02000000000043
:103A80001000200030079800D2FF370070C0B3004C
:103A9000126A020000000000CEFF3700CE00900046
:103AA0000100E000120032003500370001CDB30004
:103AB00001404600E94F50000D003E00E38F5600E4
:103AC0000500340070C0B300126A0200000000005C
:103AD0004D002000BFFF37000C407800126A020042
:103AE000000000000CF77E008D06E800B9FF3700EB
:103AF00070C0B300126A020000000000B5FF37007A
:103B0000C0182900666C0200000000000D00E000F3
:103B10001F0032000D00E9000001EB000800330037
:103B20000E0078008D0647006A11B900B080FB00D6
:103B30000103B100028140008D0F5000FAFF3A00EE
:103B40006E009000820F500009003C00FE009000C3
:103B5000828F5000060035003E0090000000E0001B
:103B60000A0032000201EA005207980008003700FC
:103B70000A00BE00668502000000000082FF3700D8
:103B80008080EB0051079800010037005207980031
:103B90005E0090004F06BE004F05BE004F04BE0001
:103BA0000080FA00000006000E00FA00889FBE00A8
:103BB0008A9FBE008C9FBE00E0EB80000004E900FD
:103BC0000884FB001D002000880F500028003200F0
:103BD000A9C72100FB0F200069407C000004E00021
:103BE0001E003A000806E8000B06660069407E00E9
:103BF0000004E000190032000D407800EE6A020077
:103C000000000000D0192900846B020000000000B1
:103C100069407E000004E000080032000885E800EA
:103C2000126A0200000000000B0065006940780085
:103C30000A05E8000004E000F9FF3A000D804600A4
:103C40000C3778008D06E800E78F56000800320038
:103C5000C0182900666C0200000000000804E9009A
:103C60000B046400E0EB8000800F5400DAFF3A00A0
:103C7000C0182900666C02000000000060AF290037
:103C800001002000668502000000000013002000F3
:103C90000D017800830078000000EB002EFF070084
:103CA0008000E800E18F500009003600000040006D
:103CB000EE0278000580FB00A1C72100E1407800FA
:103CC0000000EB000104E00006003A00120037009B
:103CD000C0182900666C02000000000010002000DF
:103CE0001C003700D6EB80000000EB00F30F200033
:103CF000A2C72100060240000302620001717A009F
:103D00000000E8008500400083806000E2C0780089
:103D10000104E000F7FF3A00D2EB80000201E90065
:103D2000F10F200001016100E2EB88000281E80050
:103D30000000410001006000D0EB88000000E900B5
:103D4000810060000041EB00A0C7210002F0780074
:103D50000000EB004F06BE004F05BE004F04BE0042
:103D60000080FA0000000600889FBE008A9FBE0007
:103D7000E0EB80000000E8000080FB00E0EB880042
:103D8000BCFE0700F8FD07000000E00045003A0017
:103D90000004EB0009032000AAA621000840E80067
:103DA000EE6A020000000000D0192900846B0200B6
:103DB0000000000009C0B9008002B0000A00400005
:103DC000666C0200000000000804E800EB0F5400DD
:103DD000F2FF3A00E063290001002000668502003E
:103DE0000000000060E421001074A1001300200016
:103DF000B20020008300780003007800D6FE0700A0
:103E00000004E9000000E800E10F500005003E005A
:103E1000A09129000100200066850200000000003A
:103E20003F00370019E421001980FB000A0320003D
:103E30000A80B9002002B000ABA621006B00780018
:103E4000000001007868020000000000884C780043
:103E50000880FB000A80B9007E0540006B007D00F1
:103E600000000100C07429000100200066850200E6
:103E7000000000000800E00005003200C222A80097
:103E8000E0EB280001002000668502000000000031
:103E9000C0B8290001002000668502000000000073
:103EA0001F0037000004E900EA0F540018003C002E
:103EB00019E421001980FB000A0320000A80B900E0
:103EC0002002B000ABA621006B00780000000100CA
:103ED0007868020000000000884C78000880FB0031
:103EE0000A80B9007E0540006B007D0000000100E3
:103EF0000800E00001003200C222A800C0B829007A
:103F00000100200066850200000000000400370068
:103F1000E064290001002000668502000000000026
:103F2000D0EB80000000E9000080FB00E0EB88009F
:103F30004F05BE004F04BE0000000600881F780039
:103F4000E0EB80000000E8000080FB00E0EB880070
:103F500048FE070084FD07008000E900E98F50005B
:103F600003003E00F1E321008048E9000D00370026
:103F700060E421001074A100E0C3280001002000CB
:103F800066850200000000008001EB00A200200016
:103F900011002000900020006FFE0700F1E32100D7
:103FA0008048E9000004EB00F0E3210091C0B30079
:103FB00090CF100011003A002EFE07006AFD0700A6
:103FC000000478000800E0000C003A0060E42100E2
:103FD0001074A100E06A290001002000668502003B
:103FE000000000008001EB00F2FF27008300780052
:103FF0002002200058FE070000047800A06E29006F
:10400000010020006685020000000000207F2900DA
:10401000010020006685020000000000546D0200CF
:1040200000000000F0E3210091C0B30090CF100029
:1040300003003A00080078005E6D020000000000F6
:10404000386902000000000008C2B3000A6A0200DA
:1040500000000000884F5000FCFF3A004F04780039
:1040600000000600E0EB80000000E8000080FB009C
:10407000E0EB8800FFFD07003BFD07008000E90042
:10408000E38F500003003E0001E421008048E90076
:104090000D00370060E421001074A1008027290082
:1040A0000100200066850200000000008001EB0096
:1040B00042002000110020000100780026FE0700C9
:1040C00001E421008048E900C06D290001002000C2
:1040D000668502000000000000000600889FBE0008
:1040E0008A9FBE00001A2900846B020000000000B5
:1040F000E0C2B300126A020000000000E0E3210009
:1041000010407800126A020000000000D1F1800027
:10411000F0442000808F500004003A00E06829003D
:10412000010020000C85020000000000C0182900DA
:10413000666C020000000000E01A2900846B020097
:1041400000000000B0C5B300126A020000000000C9
:10415000190020000004EB000A032000ABA6210098
:10416000020037000804E8008904E8000800E000C5
:104170007300320000C2B300126A020000000000A7
:104180000AC0B9008002B0000B004000846B02003E
:1041900000000000EA8F5400F2FF3600D0C5B300E3
:1041A000126A020000000000E092290001002000D5
:1041B0000C85020000000000A1BF2A000000EB00F7
:1041C000EC68020000000000000478004840DE00B7
:1041D000EE6A020000000000E0C2B300126A0200B2
:1041E0000000000008407800EE6A020000000000B5
:1041F000C0182900666C020000000000C0AF290052
:10420000010020000C85020000000000A8E321004E
:1042100018007800286A020000000000C0B22900DF
:10422000010020000C85020000000000E0F1800089
:10423000286A020000000000809829000100200088
:104240000C85020000000000F0442000980F1000D0
:1042500005003A0000C62900010020000C8502007C
:104260000000000004003700E0C529000100200024
:104270000C85020000000000E0F180002104230012
:10428000810F50001100320004003E003100230075
:10429000810F50001C003A00070037003104230052
:1042A000810F50000E00320061042300810F500086
:1042B00015003A000F00370060C5290001002000FA
:1042C0000C850200000000001300370080C52900A3
:1042D000010020000C850200000000000E003700E5
:1042E000A0C52900010020000C850200000000008C
:1042F00009003700C0C52900010020000C8502001C
:10430000000000000400370000BF29000100200069
:104310000C85020000000000B01E2900666C02003F
:1043200000000000603929000100200066850200BD
:10433000000000004F05BE004F04BE000000060054
:104340000AC0B9008002B0000B004000846B02007C
:104350000000000083FF37001000FA00889FBE00B5
:104360008A9FBE008C9FBE000000EB00E0EB88003F
:10437000D0EB8800F0EB880011E421008048780041
:1043800061E421001174A10041D821004700090017
:104390008058EB0060EE8800EA6129000B002000E5
:1043A000AC7D29000D0020000A8FBE0010E4210022
:1043B0001081FB00000320000091B90021A9210019
:1043C00001004100846B02000000000020E4210095
:1043D00010007800640060000400320080AD290005
:1043E000010020000C85020000000000A018290038
:1043F000846B02000000000049D82100FA00370059
:1044000060EE80000000E000440032000000E9009F
:1044100060EE88007801B900E94079000104E0000D
:10442000140032000004EB00D2EB8000A3C721008F
:10443000817179007800B90000004400694078007B
:10444000126A0200000000000804E800D0EB8000BF
:104450000000E8000080FB00D0EB880060EE8000E8
:104460007801B90082004400E9C078000104E0004E
:10447000EDFF3A000000EB0060EE880027003700F7
:1044800061E421009140780064C0600025003200A2
:1044900012E421001280FB000880B9007A0040007D
:1044A0006A007800000001000004E0001D003200F6
:1044B00013E421001380FB000880B9008002B000E3
:1044C0000A004000846B020000000000A0182900D0
:1044D000846B020000000000EBEB8000D0EB80005A
:1044E000808F55000F0032008B0F50000D003200FE
:1044F000A1C7210061C07D00126A02000000000017
:10450000F20F2000828565008B05E800D0EB80006B
:104510008B0F500003003200F5FF37000803200026
:10452000AAA621005E690200000000000004E0006D
:10453000D3FF3200626D0200000000000004E000C2
:1045400003003200686D020000000000A600370082
:104550000A6A0200000000000081FB008001EB00FD
:10456000F1072000810F5100E08F59009D003E00AF
:1045700002600100930037008C0037008300370091
:10458000980037007D0037008A003700810037002F
:10459000940037007700370092003700870037001B
:1045A000900037008F003700840037007D0037000F
:1045B0008C003700790037008A0037008900370007
:1045C00088003700870037008600370085003700F5
:1045D00084003700830037008200370081003700F5
:1045E000680037007F0037007E0037007D0037000D
:1045F0007C0037007B0037007A00370079003700F5
:1046000078003700770037007600370075003700F4
:1046100074003700730037007200370071003700F4
:10462000700037006F0037006E0037006D003700F4
:104630006C0037006B0037006A00370069003700F4
:1046400068003700670037006600370065003700F4
:1046500064003700630037006200370061003700F4
:10466000600037005F0037005E0037005D003700F4
:104670005C0037005B0037005A00370059003700F4
:1046800058003700570037005600370055003700F4
:1046900054003700530037005200370051003700F4
:1046A000500037004F0037004E0037004D003700F4
:1046B0004C0037004B0037004A00370049003700F4
:1046C00048003700470037004600370045003700F4
:1046D00044003700430037004200370041003700F4
:1046E000400037003F0037003E0037003D003700F4
:1046F0003C0037003B0037003A00370039003700F4
:1047000038003700370037003600370035003700F3
:1047100034003700330037003200370031003700F3
:10472000300037002F0037002E0037002D003700F3
:104730002C0037002B0037002A00370029003700F3
:1047400028003700270037002600370025003700F3
:1047500024003700230037002200370021003700F3
:10476000200037001F0037001E0037001D003700F3
:10477000020037004FF907001B0037006EF90700F1
:104780001900370020FA07001700370004FA070065
:1047900015003700DBF707001300370046F8070065
:1047A0001100370069F807000F0037006CF90700A7
:1047B0000D00370083F907000B003700A1F8070050
:1047C0000900370021D821001140E8008048780016
:1047D000F44F500004003A000041020000000000C5
:1047E0000100370090F9070032D821001204E000E0
:1047F00003FF3200D3EB800053079800E1EB800009
:10480000020078000048EB0060E421001074A10071
:1048100020E42100100078006400600007003200EE
:104820000037020000000000C0B82900010020008D
:104830006685020000000000190437006107980037
:104840000040EB00104F9800A2A2290003002000B6
:104850002207980033079800E0EB8000A1C72100F1
:10486000614178000281FB008001EB00E10720003C
:10487000810F5100E08F5900E3033E000260010008
:10488000E3033700E0033700DF033700DE033700C0
:10489000DD033700DC033700DB033700DA033700C2
:1048A000D9033700D8033700D9033700D6033700C0
:1048B000D5033700D6033700D3033700D2033700C0
:1048C000D1033700D0033700CF033700CE033700C2
:1048D000CD033700CC033700CB033700CA033700C2
:1048E000C9033700C8033700C7033700C6033700C2
:1048F000C5033700C4033700C3033700C2033700C2
:10490000C3033700A403370012023700F300370057
:10491000FA0037006301370051013700BA0337004E
:10492000EE013700B8033700B7033700B60337008E
:10493000B703370057033700700337003B033700D6
:1049400079023700780237007702370076023700A5
:1049500075023700740237007302370072023700A5
:104960007102370070023700A7033700A603370033
:104970006B013700C6003700A3033700470037003C
:104980000F0137000B0137009F0337006A00370023
:1049900030013700010137009B0337009A033700CD
:1049A00099033700980337009703370096033700C1
:1049B0006B003700940337009303370092033700EE
:1049C0008D003700900337008F033700490137000F
:1049D0008D0337008C0337008B0337000B01370042
:1049E0008903370088033700870337002B0237001D
:1049F0001B0337003A0237004E03370032033700FB
:104A000081033700E80037002F00370042003700ED
:104A100002013700CD003700310037003300370086
:104A20001600370020003700770337007603370081
:104A30005500370022003700730337002400370089
:104A40005B00370070033700A402370026013700EF
:104A50006D0337006C0337001F003700ED0037008F
:104A60006903370068033700670337001302370014
:104A70008A003700230237008B0037004AFC07000A
:104A80000000E00062033A00E2EB80006207980059
:104A9000D3EB8000530798005D0337007085020058
:104AA000000000005A0337008CFD070010E42100CD
:104AB0001004E0005603320027FA070054033700C1
:104AC000A9FC0700520337001CFD07005003370004
:104AD00064FD07004E0337007AF907004C033700E6
:104AE000F45C0200000000004903370010E42100DC
:104AF0001004E00005003A00A04529000100200054
:104B0000668502000000000041033700E05B020000
:104B1000000000003E03370060E42100C1CFB30075
:104B200010C86000E05E29000100200066850200D8
:104B3000000000003603370060E42100C1CFB3005D
:104B400090C060000104A00001487800E05F2900E7
:104B50000100200066850200000000002C033700E1
:104B600060E421001034A00020482900010020004A
:104B70000C85020000000000C0182900666C0200CD
:104B8000000000002203370060E421001034A1007F
:104B9000E0462900010020000C8502000000000012
:104BA000C0182900666C02000000000018033700DE
:104BB00010E421001004E00005003A00A04529009F
:104BC000010020006685020000000000100337008D
:104BD000CB62A900C962A900E060290001002000A1
:104BE0000C85020000000000C0182900666C02005D
:104BF000000000000603370010E421001004E0006C
:104C000005003A00A0452900010020006685020049
:104C100000000000FE02370060E421001040780030
:104C20007040600004003A000029290001002000C3
:104C30006685020000000000C962A800CB62A900DE
:104C4000E06C2900010020000C850200000000003B
:104C5000C0182900666C02000000000021E3A800D3
:104C6000B0002000B468020000000000F104200041
:104C7000810F500004003E00003229000100200096
:104C8000668502000000000021E3A900E002370071
:104C90000040EB0007FB0700DD02370010C0B30047
:104CA00004FB0700DA02370010E421001004E000E2
:104CB00005003A0011C0B300014078005A780200A4
:104CC00000000000D20237006059290001002000D6
:104CD0006685020000000000CD02370000B92900FF
:104CE000010020006685020000000000546D0200F3
:104CF000000000000000FE00C5023700028602002E
:104D0000000000000004E000C102320011C0B30046
:104D1000A07F22000148780020A229000100200085
:104D20006685020000000000400620000E690200B7
:104D3000000000007868020000000000546D0200CE
:104D4000000000000000FE00B1023700C042A800D1
:104D5000C242A9009DFA0700000478000800E000A4
:104D6000AB023200C91829000C00BE000C850200FD
:104D700000000000101680004200DE0061006000AC
:104D800058F6070009007800666C02000000000079
:104D90000804E900F4FF3A009D023700C042A90070
:104DA000C242A9009A0237008A6002000000000097
:104DB000970237006E600200000000009402370086
:104DC00082FA0700000478000800E0009002320038
:104DD000C91829001E05BE000A00BE000C8502008D
:104DE00000000000A6600200000000000080FB0040
:104DF0003CF6070009007800666C02000000000025
:104E00000804E900F4FF3A00810237003BF707008D
:104E10007F0237001BF707007D0237002082290040
:104E2000010020000C85020000000000446B02001D
:104E30000000000060C62900010020000C8502006F
:104E400000000000C0182900666C0200000000008D
:104E50006F023700726C0200000000006C02370025
:104E60005AFA070000047800E0AD29000100200094
:104E70000C8502000000000008007800FC6A0200B7
:104E800000000000C0C42900010020006685020067
:104E9000000000000800780018690200000000000F
:104EA0005B02370049FA070000047800E0AD2900F2
:104EB000010020000C8502000000000008007800BE
:104EC000FC6A02000000000020C52900010020004B
:104ED0006685020000000000080078000E690200EC
:104EE000000000004A02370020E421001020A0004A
:104EF0004702370010E421001004E00005003A00EA
:104F0000A045290001002000668502000000000085
:104F10003F023700CA600200000000003C02370078
:104F200061E421001174A0000004E8000884FB0083
:104F3000A1C7210061417C000204E000170032009B
:104F400016C0B30011002000E5C3B3008043EB009E
:104F5000F40F2000A3C72100854F510001003A0043
:104F6000074378008100E8000081400004016100EF
:104F7000634179000204E000F7FF3A0060E4210099
:104F80004733DD00104178000274A100064871002B
:104F9000FA8F5000010034001074A00060E421007A
:104FA0001004E0001A023500E8EB88006EF90700F3
:104FB00000047800E0EB80008080FB00A2C72100A5
:104FC00062C17800D1C3B300814F510021003A0083
:104FD0008800E900E28F50001B003E000000E8005E
:104FE0000080FB00E0EB88000801E9007811B900BF
:104FF00030D8210080004100010178000000EB0062
:105000008041EB00036978000000E800F80F5000D1
:10501000FCFF3A00E0EB8000A5C72100E4C3B30029
:10502000F30F200003003700826878000000E800DA
:105030000300600065417800844F5100FAFF3A0098
:10504000E0EB8800F201370060E421001074A0005A
:10505000EF0137000800E00015003A004AD82100AF
:105060001B002000D81E2900A91829000B40780039
:10507000EE6A02000000000008007800846B020065
:10508000000000000A007800846B020000000000AD
:1050900009007800666C0200000000008B05E80043
:1050A00078054500E48F5500F0FF3A00D80137003D
:1050B0000800E900E20F500005003E00C01829007A
:1050C000666C02000000000068EE8800D001370026
:1050D00060E421001074A000CD0137000000E8005A
:1050E000F80F200008006000E0EB88001EF90700C0
:1050F00080047800DFF90700E0EB8000080460001E
:10510000A0C72100E0407C0090C2B30080CF5000D7
:105110000D003A0010E421009080FB000003200005
:105120000088B9007C004000A1A62100E1007800C1
:105130000900780001000100C0182900666C020017
:1051400000000000B201370060E421001074A000EC
:10515000AF01370061E421001174A0008000E80075
:105160008180FB00A2C72100E2C078000104E000BA
:10517000120032000080E80015C0B30024C2B30062
:105180000043EB00F30F200084CF500001003A00F1
:105190008642780083006000E2C078000000E800EA
:1051A0000104E000F8FF3A0060E42100C72ADD00B6
:1051B000904078000174A10005C8700060E42100EF
:1051C0001004E0009201350040AE290001002000EB
:1051D0000C8502000000000020C2B300126A020029
:1051E00000000000E1EB80008100E8008180FB000E
:1051F000A0C7210060C0780022C2B300824F5000D7
:105200001E003200A8C7210069E421005BE42100F0
:10521000AAA62100E1EB8800126A0200000000004B
:10522000E0EB8000684078000080FB0019417800C6
:10523000E8406100030032009B407800C268020031
:105240000000000013E421001381FB000103200093
:105250000191B900E8004100EA80780001000100F6
:10526000E1EB80008100E8008180FB0068C07800ED
:1052700022C2B300824F5000E6FF3A00E1EB880003
:1052800020C2B300126A020000000000C01829000A
:10529000666C0200000000005D01370010E4210090
:1052A0009080FB00000320000088B900A2A6210026
:1052B00062007800000001005501370010E4210071
:1052C0009080FB00000320000088B9000080E80007
:1052D000A1A6210061007800000001004C01370008
:1052E00010E421009080FB00000320000088B9003A
:1052F00064004000A1A621006100780000000100C8
:105300004301370010E421009080FB0000032000DF
:105310000088B90066004000A1A621006100780065
:10532000000001003A01370040AE290001002000D2
:105330000C850200000000008BF807008005780053
:10534000E0EB80000000E9000080FB00E0EB88005B
:105350001EF907000005E80031F907000000E00031
:105360005300320051E421008048780011C0B3009E
:10537000E80F500001003C008040EB0060E4210099
:10538000E1C06000C508DD00104178000254A100B2
:1053900001487100460037000B007800EA6C0200FB
:1053A0000000000002C2B30061E42100114061006E
:1053B00005003A0080C0B30053E42100934F100071
:1053C00005003A000B00370002C1B30051E4210090
:1053D000914F110007003200B0C3B300126A0200FF
:1053E0000000000053E4210013407800EE6A020040
:1053F0000000000061E421009140780068C0600076
:105400000600320052E42100924078000B00780040
:10541000C2680200000000008005780013E421004B
:105420009380FB00000320000088B9006800400062
:10543000A2A62100E20078000B0078000100010024
:105440000005780000C2B300126A020000000000EC
:1054500001C4B30063E4210013C0600017003200F0
:105460000800BE000C8502000000000062E421007C
:1054700012417800684061000600320053E42100C8
:10548000934078000A007800C26802000000000023
:10549000000578000A007800EA6C020000000000B5
:1054A00000C2B300126A02000000000003003700CF
:1054B00008B82900090020007A0798007E009000B3
:1054C0000000E90070079800B3FF3A00C0182900F7
:1054D000666C020000000000CD00370000B8290013
:1054E000010020000C8502000000000052F40700BB
:1054F000004F9800B5F8070000047800C8F80700CE
:105500000000E0000C00320051E4210080487800E7
:1055100011C0B300E80F500001003C008040EB00D8
:1055200060E42100E1C06000C508DD0010417800A2
:105530000254A100014871008E4890000104E0006F
:105540000400320000E4210010417800124F98005E
:105550000148E9000800E0002A0032000B032000A7
:10556000AAA6210069E4210013E421001380FB00B6
:105570000B80B9006A0040006A007800000001005A
:1055800019417800E84061000400320053E4210032
:1055900093407800C268020000000000EA6C02003C
:1055A0000000000001C2B30019C0600005003A000D
:1055B00083C0B30052E4210092CF110005003A00ED
:1055C0000B00370001C1B30050E4210090CF100060
:1055D00007003200B0C3B300126A020000000000EE
:1055E00052E4210012407800EE6A02000000000040
:1055F00000C2B300126A0200000000000804E900C3
:10560000D9FF3A008E4990000304E0000300320005
:1056100000E421009E48900001487800C01829004D
:10562000666C02000000000079003700A0AE29007F
:1056300001002000668502000000000010E4210047
:105640009080FB00000320000088B9006C0040003F
:10565000A1A6210061007800000001006C00370065
:1056600000AF290001002000668502000000000054
:1056700010E421009080FB00000320000088B900A6
:105680006E004000A1A6210061007800000001002A
:105690005F003700C08F29000100200066850200EE
:1056A0000000000010E421009080FB0000032000B7
:1056B0000088B90070004000A1A6210061007800B8
:1056C0000000010052003700609029000100200016
:1056D000668502000000000010E421009080FB00BD
:1056E000000320000088B90072004000A1A621003C
:1056F000610078000000010045003700208F29007C
:10570000010020000C8502000000000010E42100D0
:105710009080FB00000320000088B9007400400066
:10572000A1A621006100780000000100EDF3070050
:105730003700370025F807000004780000912900A1
:10574000010020000C850200000000000800780025
:10575000EA6C0200000000000800E0000A003200CD
:1057600019E42100AAA621009980FB000003200073
:105770000088B900760040006A007800000001004F
:105780000804E900F8FF3A00C0182900666C02001E
:10579000000000001E0037000CF80700000478002D
:1057A0002E009000BE0090000C850200000000005A
:1057B0000800E0000F00320019E42100AAA6210031
:1057C0009980FB00000320000088B90078004000A9
:1057D0006A007800000001000080FB00C1F30700B0
:1057E00000C2B300126A0200000000000804E900D1
:1057F000F3FF3A00607E2900010020006685020068
:10580000000000000200370060E421001074A000D6
:10581000E0EB80000000E8000080FB00E0EB880087
:105820000040EB0061E421001104E00016003D009F
:10583000E0622900010020000C8502000000000049
:10584000E0EB80006E019000800F510004003100F9
:1058500002405000EE6A0200000000000400370021
:10586000CE49900003405000EE6A020000000000A4
:1058700060E421001074A100C0182900666C0200C9
:105880000000000010C0B300D1EB8000E2EB80000C
:10589000810F5100020032000004E000EEFB3200F4
:1058A0005E009000E0EB8800D0EB880030D821004B
:1058B0000048EB00BDFA370010D0800021802100A5
:1058C0006141780031C8B300814F51000E003A00A9
:1058D0000000E80010D0880021802100614178009C
:1058E00001CEB300814F510007003E00218021000E
:1058F0008100400002CEB3000000E800D14F11004B
:10590000FDFF360010D08800000006002280210034
:10591000124278000041EB0003CEB300834F5200E7
:1059200023003600328021009281FB00C819DD007F
:10593000428021001281FB0002814100820F500051
:1059400010003A000B0037008202E80063C37A00BF
:105950004833DD008282E800E3C27A008582FB00E2
:1059600085024300850F5000030032000442B0005E
:10597000080037000001EB008208780012C0B30075
:105980000B0037000442B0000001EB00238021002F
:1059900007CEB3000482FB00630242000401410011
:1059A00063427900874F5200E7FF3E000041EB0061
:1059B000024078000000060000017800E6EB80005D
:1059C0009240780010C0B3000104E00016003200DD
:1059D000A0C7210060407B0080CF5000070032004C
:1059E00003003700E5C17800834F51000700320003
:1059F000E6EB88000040EB000B0037000200780067
:105A000086007800F40F2000A5C721008100E8007F
:105A100084806000E1EB8800504178000204E000DF
:105A2000F0FF3A0010C0B30000000600889FBE00DF
:105A30008A1F7800090329000004EB002A022000D5
:105A400059007800DCFF07000004E000030032008A
:105A500000C8B30000404400040037000804E80018
:105A60008A0F5400F6FF3A000040EB004F05780023
:105A70004F04BE0000000600889FBE008A1F780009
:105A80000000EB0010D08800208021001044780036
:105A90000804E0002F0032002A0329008004780067
:105AA0000804E0000400350008407800126A020093
:105AB000000000002100370000CEB300804F5400EA
:105AC0001200360060F62800666C0200000000003C
:105AD00010D080008080E8000000E8006941780074
:105AE0004811DD0069C078000080FB000000410023
:105AF00011D08800FC6A02000000000000C2B30060
:105B0000126A0200000000000C00370000C2B3005F
:105B1000126A0200000000000884FB000808B100BF
:105B2000080444006A007C00846B0200000000004E
:105B300000C2B300126A02000000000010D0800012
:105B40000000E80010D08800694478000804E000F4
:105B5000D3FF3A0060F62800666C020000000000E7
:105B600010D080000000E900FC6A02000000000084
:105B700020AD290001002000668502000000000021
:105B80004F0578004F04BE0000000600881F780013
:105B900071C9B300814F50003A0032000A003E0044
:105BA00041C9B300814F50001600320061C9B300F3
:105BB000814F50002A00320031C9B300814F50009C
:105BC00048003A0018003700A1C9B300814F5000C7
:105BD0003600320004003E0081C9B300814F5000FE
:105BE00040003A0039003700B1C9B300814F50007E
:105BF00031003200D1C9B300814F500039003A0062
:105C00001300370010E421009080FB000003200007
:105C10000088B9006A004000A1A621006100780058
:105C2000000001003000370010E421009080FB00EC
:105C3000000320000088B90068004000A1A62100F0
:105C40006104780091000700080001002600370079
:105C5000A6600200000000000080FB002200370068
:105C600010E421009080FB00000320000088B900B0
:105C700074004000A1A6210061007800000001002E
:105C80001900370010E421009080FB000003200081
:105C90000088B90078004000A1A6210061007800CA
:105CA000000001000080FB000F003700101680008C
:105CB000610060000C003700501680004B00DE00D1
:105CC000610060000080EA000700370021E3A800BF
:105CD000C0002000B46802000000000021E3A90019
:105CE000010037000000EB004F04780000000600C0
:105CF00012D0800020802100E040790080C2B300F3
:105D000080CF50000C003A000201E80012D0880059
:105D10005E00070011D0800022802100E2C17800DF
:105D200092C2B30082CF51002B003A008100E800FC
:105D300011D0880028003700F0CBB30000C040002D
:105D4000F94F500008003E008180FB001104B100B3
:105D500081804000A0A02100608078000201E8005E
:105D600012D088001C00370000C8B30080CF50005C
:105D700006003E0000CDB30000C04000E94F5000D7
:105D8000070036000000EB00130037000201E800B6
:105D900012D08800014078007CFF07000E00370019
:105DA00023802100830141000000EB0006CDB300F9
:105DB0006A02B9000180FB00040040000003B1004A
:105DC0000201E800D340780006C24000E94F5200CB
