:020000040000FA
:0800000000A80400000000004C
:020000040000FA
:040008007C02000076
:020000040000FA
:04000C007C02000072
:020000040000FA
:040010007C0200006E
:020000040000FA
:040014007C0200006A
:020000040000FA
:040018007C02000066
:020000040000FA
:04001C007C02000062
:020000040000FA
:040020007C0200005E
:020000040000FA
:040024007C0200005A
:020000040000FA
:040028007C02000056
:020000040000FA
:04002C007C02000052
:020000040000FA
:040030007C0200004E
:020000040000FA
:040034007C0200004A
:020000040000FA
:040038007C02000046
:020000040000FA
:04003C007C02000042
:020000040000FA
:040040007C0200003E
:020000040000FA
:040044007C0200003A
:020000040000FA
:040048007C02000036
:020000040000FA
:04004C007C02000032
:020000040000FA
:040050007C0200002E
:020000040000FA
:040054007C0200002A
:020000040000FA
:040058007C02000026
:020000040000FA
:04005C007C02000022
:020000040000FA
:040060007C0200001E
:020000040000FA
:040064007C0200001A
:020000040000FA
:040068007C02000016
:020000040000FA
:04006C007C02000012
:020000040000FA
:040070007C0200000E
:020000040000FA
:040074007C0200000A
:020000040000FA
:040078007C02000006
:020000040000FA
:04007C007C02000002
:020000040000FA
:040080007C020000FE
:020000040000FA
:040084007C020000FA
:020000040000FA
:040088007C020000F6
:020000040000FA
:04008C007C020000F2
:020000040000FA
:040090007C020000EE
:020000040000FA
:040094007C020000EA
:020000040000FA
:040098007C020000E6
:020000040000FA
:04009C007C020000E2
:020000040000FA
:0400A0007C020000DE
:020000040000FA
:0400A4007C020000DA
:020000040000FA
:0400A8007C020000D6
:020000040000FA
:0400AC007C020000D2
:020000040000FA
:0400B0007C020000CE
:020000040000FA
:0400B4007C020000CA
:020000040000FA
:0400B8007C020000C6
:020000040000FA
:0400BC007C020000C2
:020000040000FA
:0400C0007C020000BE
:020000040000FA
:0400C4007C020000BA
:020000040000FA
:0400C8007C020000B6
:020000040000FA
:0400CC007C020000B2
:020000040000FA
:0400D0007C020000AE
:020000040000FA
:0400D4007C020000AA
:020000040000FA
:0400D8007C020000A6
:020000040000FA
:0400DC007C020000A2
:020000040000FA
:0400E0007C0200009E
:020000040000FA
:0400E4007C0200009A
:020000040000FA
:0400E8007C02000096
:020000040000FA
:0400EC007C02000092
:020000040000FA
:0400F0007C0200008E
:020000040000FA
:0400F4007C0200008A
:020000040000FA
:0400F8007C02000086
:020000040000FA
:0400FC007C02000082
:020000040000FA
:040100007C0200007D
:020000040000FA
:040104007C02000079
:020000040000FA
:040108007C02000075
:020000040000FA
:04010C007C02000071
:020000040000FA
:040110007C0200006D
:020000040000FA
:040114007C02000069
:020000040000FA
:040118007C02000065
:020000040000FA
:04011C007C02000061
:020000040000FA
:040120007C0200005D
:020000040000FA
:040124007C02000059
:020000040000FA
:040128007C02000055
:020000040000FA
:04012C007C02000051
:020000040000FA
:040130007C0200004D
:020000040000FA
:040134007C02000049
:020000040000FA
:040138007C02000045
:020000040000FA
:04013C007C02000041
:020000040000FA
:040140007C0200003D
:020000040000FA
:040144007C02000039
:020000040000FA
:040148007C02000035
:020000040000FA
:040208007C02000074
:020000040000FA
:04020C007C02000070
:020000040000FA
:040210007C0200006C
:020000040000FA
:040214007C02000068
:020000040000FA
:040218007C02000064
:020000040000FA
:04021C007C02000060
:020000040000FA
:040220007C0200005C
:020000040000FA
:040224007C02000058
:020000040000FA
:040228007C02000054
:020000040000FA
:04022C007C02000050
:020000040000FA
:040230007C0200004C
:020000040000FA
:040234007C02000048
:020000040000FA
:040238007C02000044
:020000040000FA
:04023C007C02000040
:020000040000FA
:040240007C0200003C
:020000040000FA
:040244007C02000038
:020000040000FA
:040248007C02000034
:020000040000FA
:04024C007C02000030
:020000040000FA
:040250007C0200002C
:020000040000FA
:040254007C02000028
:020000040000FA
:040258007C02000024
:020000040000FA
:04025C007C02000020
:020000040000FA
:040260007C0200001C
:020000040000FA
:040264007C02000018
:020000040000FA
:040268007C02000014
:020000040000FA
:04026C007C02000010
:020000040000FA
:040270007C0200000C
:020000040000FA
:040274007C02000008
:020000040000FA
:040278007C02000004
:020000040000FA
:04027C007C02000000
:020000040000FA
:040280007C020000FC
:020000040000FA
:040284007C020000F8
:020000040000FA
:040288007C020000F4
:020000040000FA
:04028C007C020000F0
:020000040000FA
:040290007C020000EC
:020000040000FA
:040294007C020000E8
:020000040000FA
:040298007C020000E4
:020000040000FA
:04029C007C020000E0
:020000040000FA
:0402A0007C020000DC
:020000040000FA
:0402A4007C020000D8
:020000040000FA
:0402A8007C020000D4
:020000040000FA
:0402AC007C020000D0
:020000040000FA
:0402B0007C020000CC
:020000040000FA
:0402B4007C020000C8
:020000040000FA
:0402B8007C020000C4
:020000040000FA
:0402BC007C020000C0
:020000040000FA
:0402C0007C020000BC
:020000040000FA
:0402C4007C020000B8
:020000040000FA
:0402C8007C020000B4
:020000040000FA
:0402CC007C020000B0
:020000040000FA
:0402D0007C020000AC
:020000040000FA
:0402D4007C020000A8
:020000040000FA
:0402D8007C020000A4
:020000040000FA
:0402DC007C020000A0
:020000040000FA
:0402E0007C0200009C
:020000040000FA
:0402E4007C02000098
:020000040000FA
:0402E8007C02000094
:020000040000FA
:0402EC007C02000090
:020000040000FA
:0402F0007C0200008C
:020000040000FA
:0402F4007C02000088
:020000040000FA
:0402F8007C02000084
:020000040000FA
:0402FC007C02000080
:020000040000FA
:040300007C0200007B
:020000040000FA
:040304007C02000077
:020000040000FA
:040308007C02000073
:020000040000FA
:04030C007C0200006F
:020000040000FA
:040310007C0200006B
:020000040000FA
:040314007C02000067
:020000040000FA
:040318007C02000063
:020000040000FA
:04031C007C0200005F
:020000040000FA
:040320007C0200005B
:020000040000FA
:040324007C02000057
:020000040000FA
:040328007C02000053
:020000040000FA
:04032C007C0200004F
:020000040000FA
:040330007C0200004B
:020000040000FA
:040334007C02000047
:020000040000FA
:040338007C02000043
:020000040000FA
:04033C007C0200003F
:020000040000FA
:040340007C0200003B
:020000040000FA
:040344007C02000037
:020000040000FA
:040348007C02000033
:020000040000FA
:100400008A1F78008B1F7800000006009101880089
:10041000800478000000EB001A003700E2844400FA
:1004200032A0B4009905BA00E284440032A0B400BE
:100430009906BA00E284440032A0B4000006EB0042
:10044000476FDE00FD07B200636CE10003003A0075
:10045000EBFF07000000EB000A003700606CE100D2
:1004600004003A00005DEB008B05E900FDFF3E0053
:10047000040037006168E100010032000086EB00F3
:100480000B00070019C7BA001905BA000E04E000F6
:1004900003003A000A00E000E0FF3A000000060016
:1004A000FE07B2009E0188008A047800F5FF37003D
:1004B000395DBA008B05E9000C003200295DBA00F5
:1004C0008B05E900080032000C00E00003003A0050
:1004D000E284440032A0B400F5FF370019DDBA0011
:1004E0008B05E900FAFF3A008904E800E184440042
:1004F00032A0B400000006000040DA000000FE0058
:0405000000000500F2
:020000040000FA
:1005040000080000C200000000000000FA270000FC
:0C051400060000000000000000000000D5
:020000040000FA
:020000040001F9
:084FF8000000FF000000FF00B3
:020000040000FA
:020000040001F9
:105000002F8C20004227A9004507A90042A7AE0027
:10501000FEFF3700F0FF2F0060198800C07F2200DC
:10502000B0007800629225000208E10008003A0012
:1050300090007800121423000208E10004003A00F6
:10504000A07F22001004E0000048EB000C003A00B2
:10505000A07F22000048EB00CC22A900C822A800B3
:1050600068A0A800CC02A900C802A90000000000A6
:1050700000000000CA22AF00A20037000004EB00CD
:105080002635800027368000A406A800A426A900A3
:10509000A446A800A466A900A486A900C406A80086
:1050A000C426A800C446A900C466A900C486A900F5
:1050B000C422A800C022A9008000EB00200220002A
:1050C000401188002062A80021E2A8002342A80025
:1050D00073000700100CB1000B0032003002B10069
:1050E0007F0032002004200020118800C00420002E
:1050F000201188004003200020118800B002200009
:105100002011880073003700400D20002011880016
:1051100010002000201188002000200020118800AD
:10512000B0042000201188000007EB005C0007009D
:10513000900188005A00070003E1B70058000700FB
:1051400002E1B7000281BF0080027800000278000F
:1051500053000700800678005100070080017800A6
:10516000028020004E000700005978008301E9000A
:10517000FCFF3A000E04E00003003200E0042000CF
:1051800020118800E8FF3700037C2A000328E10093
:1051900010003E000500E00012003A0002802000EE
:1051A00040C0B3000059780000C0B3000059780037
:1051B00080CAB3000059780000C0B30000597800DD
:1051C00000C0B3000059780000C0B3000059780057
:1051D000040037008000EB0000052000201188004B
:1051E000D1FF3700028020000D10A7000200370019
:1051F000F1FF2F00CAFF37000100A60004003700AE
:10520000850ABB00200424001A0007008000EB0080
:1052100003042000B2CABB00B25ABB00B25ABB00A2
:105220008301E900FBFF3A00100024001100070091
:10523000030420000280200014C0BA003204E10000
:1052400009003A003440BA003204E10006003A0096
:105250003440BA003204E10003003A008301E9005F
:10526000F5FF3A00AEFF37006005200020118800EE
:10527000ADFF3700003B880050052000303B880020
:10528000A00A2000303B880061E7A8000000000071
:105290000000000061E7AF00FEFF370000000600DD
:1052A0001A0120008005EB000060FE002202AE0023
:1052B000030037003011800000074700000006009F
:1052C0008B05E900F8FF3A000A05E900F5FF3A000E
:1052D0002F8C20000800A600CA22AE0068FF37000D
:1052E0008560A9008580A9002342A90021E2A900C8
:1052F0000221EF00C422A900C022A80026358800A0
:105300002736880068A0A900C802A8000000200075
:105310006019880038FF3700F8FF2F0058FF37006A
:020000040000FA
:020000040001F9
:0857F000C9FE370005040000AA
:020000040000FA
:020000040001F9
:0457F800DFF90000D5
:020000040000FA
:020000040001F9
:0457FC007F3F0000EB
:00000001FF
